:100000000C945E050C94C21A0C94A5050C94A505DD
:100010000C94A5050C94A5050C94A5050C94A505B8
:100020000C94A5050C94A5050C94BA2E0C948C2F59
:100030000C94FF280C94A5050C94A5050C94A5051B
:100040000C94A5050C94A5050C94A5050C94A50588
:100050000C94A5050C9467290C94A5050C94A50592
:100060000C94A5050C94A5050C94A5050C94A50568
:100070000C94A5050C94A5050C94A5050C94A50558
:100080000C94A5050C94A5050C94A5050C94A50548
:100090000C94A5050C94A5050C94A5050C94A50538
:1000A0000C94A5050C94A5050C94A505741477145F
:1000B0007C14831488148D14921497149C14A11426
:1000C000A614AB14AD14B014B314B614B914BC1404
:1000D000BE14C314C71EC71EF91EF91E461F7A2080
:1000E0007A207A20641FF91F0A200A206A207A20C9
:1000F0007A2073200B210B211D211D2114211D218C
:100100001D211D210B210B2119211D211D2119212B
:10011000F92F20301831203018316C308F301831E1
:10012000E630F53029001E001F00200021002200CB
:100130002B0014001A00080015001700E00004004E
:100140001600070009000A00E1001D001B00060060
:100150001900050000000000E300015102510351A5
:100160002A00270026002500240023003100130068
:1001700012000C0018001C00340033000F000E00A9
:100180000D000B00E50038003700360010001100AC
:10019000000000002C00E6002800000029003500C7
:1001A0003502000000002E022B00000000000000BD
:1001B00000002D00E40000000000000000002F00FF
:1001C000E10000000000000000002F02000000001D
:1001D000E3000000000026022A00000000000000EA
:1001E00000002E00000000000000520000002D0260
:1001F000000000004F0051005000300000000000DF
:100200000000000000003002000000000000E600D6
:100210004C00270200000000A800AA00A90000006E
:10022000000000000000000000000000015C000071
:100230000000000000000000005CBF5C0000000047
:1002400000000000000000000000000000000000AE
:1002500000000000BB00AE00BC0000000000000079
:10026000000000000000000000000000000000008E
:10027000000000000000000000000000000000007E
:1002800000000000000000000000000045003A00EF
:100290003B003C003D003E0000000000000000006C
:1002A00000000000015C00000000000000000000F1
:1002B000005CC25CC45CC35C000000000000000085
:1002C0000000000000000000440043004200410024
:1002D00040003F000000000000000000000000009F
:1002E000000000000000000000000000000000000E
:1002F00000000000000000000000000000000000FE
:100300000000000044454255473A20646973616229
:100310006C65642E0A0044454255473A20656E617B
:10032000626C65642E0A000A0025303862003A20AB
:100330000025303258000A722F63203031323334B6
:100340003536370A007267626C6967687420616EBF
:10035000696D6174696F6E207469636B207265707A
:100360006F727420746F20736C6176650A00726717
:10037000626C696768742074696D65722064697362
:1003800061626C652E0A007267626C69676874202E
:1003900074696D657220656E61626C65642E0A0019
:1003A0007267626C6967687420736574206873761D
:1003B000205B4E4F454550524F4D5D3A2025752CE0
:1003C00025752C25750A007267626C696768742050
:1003D00073657420687376205B454550524F4D5DC0
:1003E0003A2025752C25752C25750A007267626CDC
:1003F00069676874207261696E626F7720736574D3
:10040000206873763A2025642C25642C25642C25DD
:10041000750A007267626C69676874206469736149
:10042000626C65205B4E4F454550524F4D5D3A2002
:100430007267626C696768745F636F6E6669672E66
:10044000656E61626C65203D2025750A00726762E9
:100450006C696768742064697361626C65205B45D0
:100460004550524F4D5D3A207267626C69676874FF
:100470005F636F6E6669672E656E61626C65203DB5
:100480002025750A007267626C6967687420656E62
:1004900061626C65205B454550524F4D5D3A20725C
:1004A00067626C696768745F636F6E6669672E6503
:1004B0006E61626C65203D2025750A007267626C72
:1004C0006967687420746F67676C65205B45455089
:1004D000524F4D5D3A207267626C696768745F6362
:1004E0006F6E6669672E656E61626C65203D2025C2
:1004F000750A007267626C69676874206D6F646565
:10050000205B4E4F454550524F4D5D3A2025750AB0
:10051000007267626C69676874206D6F6465205B48
:10052000454550524F4D5D3A2025750A007267626D
:100530006C696768745F696E6974207267626C6960
:100540006768745F636F6E6669672E6D6F646520A0
:100550003D20302E20577269746520646566617590
:100560006C742076616C75657320746F20454550FE
:10057000524F4D2E0A007267626C696768745F693A
:100580006E6974206565636F6E66696720697320A4
:100590006E6F7420656E61626C65642E0A0072670E
:1005A000626C696768745F696E69742073746172E4
:1005B00074210A007267626C696768745F696E69AA
:1005C000742063616C6C65642E0A007267626C69EA
:1005D0006768745F636F6E6669672E7370656564C4
:1005E000203D2025640A007267626C696768745F49
:1005F000636F6E6669672E76616C203D2025640A04
:10060000007267626C696768745F636F6E666967C2
:100610002E736174203D2025640A007267626C6944
:100620006768745F636F6E6669672E687565203DE5
:100630002025640A007267686C696768745F636F7D
:100640006E6669672E6D6F6465203D2025640A0023
:100650007267626C696768745F636F6E6669672E44
:10066000656E61626C65203D2025640A00726762D8
:100670006C696768745F636F6E6669672045455093
:10068000524F4D3A0A0000047F3F1F643214643217
:1006900014783C1E1E140A052223252628292A2CFC
:1006A0002D2F3032333536383A3B3D3E40424345BC
:1006B00047494A4C4E5051535557595A5C5E6062F7
:1006C000646668696B6D6F71737577797B7D7F8107
:1006D000838587898A8C8E90929496989A9C9E9F07
:1006E000A1A3A5A7A8AAACAEAFB1B3B4B6B8B9BB25
:1006F000BCBEBFC1C2C3C5C6C7C9CACBCCCDCED094
:10070000D1D2D2D3D4D5D6D7D7D8D9D9DADADBDB80
:10071000DBDCDCDCDCDCDDDDDDDDDCDCDCDCDCDB17
:10072000DBDBDADAD9D9D8D7D7D6D5D4D3D2D2D160
:10073000D0CECDCCCBCAC9C7C6C5C3C2C1BFBEBC53
:10074000BBB9B8B6B4B3B1AFAEACAAA8A7A5A3A1C4
:100750009F9E9C9A98969492908E8C8A8987858386
:10076000817F7D7B79777573716F6D6B6968666466
:1007700062605E5C5A5957555351504E4C4A494736
:10078000454342403E3D3B3A3836353332302F2DDB
:100790002C2A292826252322FFAA7F55406261633F
:1007A0006B6C6967687420737465703A2025750AEC
:1007B000006261636B6C696768742064697361626D
:1007C0006C650A006261636B6C6967687420656EB2
:1007D00061626C650A006261636B6C6967687420B2
:1007E000746F67676C653A2025750A006261636BF8
:1007F0006C696768742064656372656173653A202B
:1008000025750A006261636B6C6967687420696EA4
:100810006372656173653A2025750A000001010164
:1008200001010101010102020202020202020203AD
:10083000030303030303030404040404040405057D
:100840000505050606060606070707070708080840
:1008500008090909090A0A0A0B0B0B0C0C0C0D0DEF
:100860000D0E0E0E0F0F0F10101111111212131387
:100870001414151516161717181819191A1A1B1B00
:100880001C1D1D1E1E1F202021222223242425265C
:1008900026272829292A2B2C2D2D2E2F3031323294
:1008A000333435363738393A3B3C3D3E3F404142A0
:1008B000434445464748494A4C4D4E4F5051535486
:1008C000555658595A5B5D5E5F616264656668693A
:1008D0006B6C6D6F7072737577787A7B7D7E8082BA
:1008E000838587888A8C8E8F91939596989A9C9E03
:1008F000A0A2A3A5A7A9ABADAFB1B3B5B7BABCBE13
:10090000C0C2C4C6C9CBCDCFD1D4D6D8DBDDDFE2DF
:10091000E4E7E9EBEEF0F3F5F8FAFDFF0A00253025
:10092000325820006B6579626F6172645F72657026
:100930006F72743A20000A0025303258006B6579D6
:10094000626F6172645F7365745F6C65643A200006
:100950005B735D004B6579626F61726420737461D3
:1009600072742E0A005B575D005B535D005B525D45
:10097000005B445D005B435D000403300000002623
:10098000034B0065006500620069006F00200049AC
:100990000072006900730020005200650076002E8E
:1009A000002000340000000E034B0065006500626B
:1009B0000069006F0000000403090409025B0003E2
:1009C0000100A0FA0904000001030101000921113E
:1009D0000100012240000705810308000A09040103
:1009E000000103000000092111010001223200076B
:1009F00005820320000A0904020002030000000926
:100A000021110100012222000705830320000107B4
:100A1000050303200001120110010000000810CBA3
:100A200056420004010203010631FF0974A10109C5
:100A300075150026FF0095207508810209761500BE
:100A400026FF00952075089102C005010980A101CB
:100A5000850319012AB700150126B7009501751005
:100A60008100C0050C0901A101850419012AA00219
:100A7000150126A002950175108100C00501090627
:100A8000A101050719E029E7150025019508750161
:100A900081029501750881010507190029FF1500DC
:100AA00026FF00950675088100050819012905959E
:100AB0000575019102950175039101C011241FBEB6
:100AC000CFEFDAE0DEBFCDBF04B603FE27C08091D2
:100AD0000D0390910E03A0910F03B0911003873086
:100AE000904BA740B04BD1F410920D0310920E031F
:100AF00010920F031092100314BE84B7877F84BF37
:100B00000FB6F894A895809160008861809360008A
:100B1000109260000FBEE0E0F8E3099511E0A0E05C
:100B2000B1E0ECE6F4E602C005900D92AC3EB107F0
:100B3000D9F723E0ACEEB1E001C01D92AD30B207B1
:100B4000E1F70E94E02B0C9434320C940000FF93E8
:100B5000EF93E091EC01F091ED01309709F00995E8
:100B6000EF91FF910895FC018591803011F0EFDF46
:100B7000FBCF0895FF27E0E230E247FF0CC041952C
:100B800097FF09C0EDE26095709580959095611D85
:100B9000711D811D911D27FF02C0219530E350E298
:100BA000AA27660F771F881F991FAA1FA41710F086
:100BB000A41B63955A95A9F7AA3008F0A95FA05D18
:100BC000AF93F395611571058105910541F7ED32FC
:100BD00011F4EF93F395F21718F43F93F395FBCFCD
:100BE0008F91B5DFFA95E1F70895E991F991859133
:100BF000803021F0853219F0AADFF9CF089520E086
:100C0000E89455915532C1F3503311F468945591DD
:100C10005A3348F4505390F3220F022E220F220F22
:100C2000200D250FF4CF0EF421958991999153361B
:100C300019F3533729F1533559F1BC018827992706
:100C4000E8945C3621F489919991689455915436D1
:100C500039F446EF7EF077FF0DC08FEF9FEF0AC0AB
:100C600055374AE039F0583540E121F0523642E03C
:100C700009F00895FF93EF937DDFEF91FF91B7CFD8
:100C8000FF93EF93FC0181918030B9F360DFFBCFDC
:100C9000FF93EF9368DFF1CFDF93CF93CDB7DEB74C
:100CA0002596A3DFCF91DF91089581E0089581E03B
:100CB00008950C94570608950C945B061F93CF93E8
:100CC000DF9300D000D01F92CDB7DEB749835A839F
:100CD0006B832091340289819A81211112C066238D
:100CE00049F00E945D26182F682F89819A810E9401
:100CF000042603C00E943026182F69817A81812F33
:100D000004C00E945D2669817A810F900F900F9038
:100D10000F900F90DF91CF911F910C943A07FC0137
:100D2000408151816281738184810C945E06CF93EE
:100D3000DF93EC010E948F06BE01DF91CF910C94EE
:100D40005C060E94A627811102C00E944F280E94C3
:100D5000B4160E94FC160C9495090E945D170C9421
:100D6000910908950C94B10681E008950C94B4069D
:100D7000CF93C82F0E94B2068C2F0E94B606CF9147
:100D8000089508950E94F9200E94C1062FEF84E380
:100D90009CE0215080409040E1F700C000000C949E
:100DA0008D290F931F93CF93DF93EC010E948F0641
:100DB0008C01BE010E945906882309F450C0BE016F
:100DC000C8010E941D16882309F449C0BE01C8014C
:100DD0000E947518882309F442C0BE01C8010E9410
:100DE000B6188823E1F1BE01C8010E94E1198823E9
:100DF000B1F1BE01C8010E945E14882381F18A818D
:100E0000882331F101308CE5180751F00E3D8CE557
:100E10001807D9F001151C45D9F40E94C2061FC05D
:100E20008091AA02C82FC095C170C0FB80F9809341
:100E3000AA02CC2329F086E193E00E94B3050FC0FB
:100E400084E093E00E94B3050BC00E944F2807C0C6
:100E5000CE01DF91CF911F910F910C945506C0E008
:100E60008C2FDF91CF911F910F91089580E090E03A
:100E7000089508952CE3829FC0011124FC0126E00F
:100E8000729FE00DF11D1124E60FF11DEE0FFF1F03
:100E9000EC5DFE4F859194910895880F991FFC0198
:100EA000E95DFC4F859194910895CF93DF930E9463
:100EB0003A070E946708EC018115904508F043C08D
:100EC000C11580E4D80708F0CBC0C03ED10528F595
:100ED000C03CD10508F0B3C0C83AD10578F4C53A92
:100EE000D10508F0A4C0C130D10509F4ECC008F464
:100EF000E8C0C430D10508F0E6C0E3C0CF3BD1055F
:100F000008F0DFC0C85AD0E0CC0FDD1FCA5BDE4F4F
:100F10000990D881C02DD464D6C0C11590E2D907FC
:100F200050F4C11521E0D20708F0CDC0C83ED1056C
:100F300008F4C9C0C6C0C11580E3D80708F086C050
:100F4000CE019F707FC0C11595E5D90708F043C059
:100F5000C11524E5D20708F09AC0C11582E5D8076B
:100F600008F5C11591E5D90708F07DC0CE0174E000
:100F7000969587957A95E1F783709C2F937021E081
:100F800030E002C0220F331F9A95E2F73C68382BFD
:100F9000CF70C695C69580E2C89FE0011124C22B90
:100FA000D32B91C09E01237033278C2F8695869575
:100FB000C115D34508F05CC0C1E0D0E002C0CC0F41
:100FC000DD1F2A95E2F720E2829FC0011124C82B81
:100FD000D92BDC6878C0C11529E5D207A0F4C1156A
:100FE00088E5D80708F058C0C11596E5D90708F07C
:100FF00068C08C2F0E94FB088F71C82FD0E0DC2FB7
:10100000CC27D06260C0C1152AE5D20708F449C0D8
:10101000CE0190568115904208F053C08D2F8F71EC
:101020000E94FB08DD27D0628F71D82B4CC0C55AB7
:10103000D0E0CC58DE4FC881D0E0D06444C0CE01AF
:10104000805C91090E944D07EC013DC0CE019927BB
:10105000D3FF03C0EC01D86C36C0EC01D06C33C0B8
:10106000DF70D06A30C0DC2FCC27C16FD06A2BC0B4
:10107000C1E0D0E002C0CC0FDD1F2A95E2F720E2EC
:10108000829FC0011124C82BD92BDA681CC0DC2F29
:10109000CC27C46FD06A17C0DC2FCC27C06FD06AB2
:1010A00012C08C2F8F700E94FB0894E0D695C795D4
:1010B0009A95E1F7CF70D0E0DC2FCC27D069C82B10
:1010C00002C0C0E0D0E0CE01DF91CF910895823818
:1010D000910569F1B0F48133910509F46DC048F4CC
:1010E0008932910509F463C08A32910509F469C017
:1010F00008958533910509F455C089339105B9F0F8
:101100000895833E910569F138F4803E9105B1F070
:10111000823E910509F10895863E9105A9F1873E29
:101120009105B9F1843E910509F064C023C0209176
:10113000FE0220FD4FC021FD4DC008958091FE02AA
:1011400080FD44C08091FF0280FF44C08091FE0278
:1011500084FD42C083EE4DC08091FE0282FF38C004
:10116000F5CF8091FE0282FD33C08091FF0280FDA9
:1011700031C0ECCF8091FF0281FF32C08091FE022E
:1011800084FD2AC087EE35C08091FE0283FF26C011
:10119000F5CF8091FE0283FD21C08091FF0281FD89
:1011A0001FC0ECCF8091FE0285FD1CC01DC0809148
:1011B000FE0285FD19C016C08091FE0286FD16C094
:1011C00017C08091FE0286FD13C010C089E311C0D4
:1011D00082EE0FC080EE0DC080E00BC086EE09C02D
:1011E00084EE07C089E205C085E303C08AE201C03E
:1011F00081E390E008959091FE0292FF0DC0282FA8
:101200002871283019F4877F846006C0282F247144
:10121000243011F48B7F886093FF0DC0282F287134
:10122000283119F4877E846106C0282F2471243167
:1012300011F48B7E88612091FF0220FF0DC0382FB2
:101240003871383019F4877F816006C0382F3171CA
:10125000313011F48E7F886021FF0DC0282F287156
:10126000283119F4877E816106C0282F2171213130
:1012700011F48E7E886194FD877E0895E82FF0E05A
:10128000EC53FD4F80810895CF92DF92EF92FF9251
:101290000F931F93CF93DF9386E393E00E94B305F0
:1012A00084ECE82E82E0F82EC0E0D0E091E3C92E75
:1012B00093E0D92E09E213E0DF93CF93DF92CF9230
:1012C0000E944C068EE293E00E94B305F7018191E3
:1012D0007F010E9494271F928F931F930F930E9468
:1012E0004C0687E293E00E94B30521968DB79EB726
:1012F00008960FB6F8949EBF0FBE8DBFCA30D105B9
:10130000D9F6DF91CF911F910F91FF90EF90DF9071
:10131000CF90089580EA8A95F1F7089508950C9486
:101320008E090C948F090C948E090C9493090895DE
:101330000F931F93CF93DF93CDB7DEB760970FB6B0
:10134000F894DEBF0FBECDBF0E94750B80911001D7
:1013500081112DC0FE0131968AE0DF011D928A9530
:10136000E9F781E3898382E38A8382E98B8381EFD2
:101370008C8384EF8D83A6E0B1E0CE010B962191A2
:101380002D938E179F07D9F726E0E0E4F1E0DE0108
:101390001B9601900D922A95E1F7FC01A0E0B1E0C7
:1013A000CE01419621912D938E179F07D9F78091F9
:1013B0001001811102C095E001C090E09093CF022E
:1013C00085E0891B8093CE02A6E0B1E04BE051E0BE
:1013D00061E070E08D91E82FE295EF70F0E021A1DF
:1013E0008F708B0102C0000F111F8A95E2F7C801B0
:1013F000902F9095922391A392A1892B82A34A17B3
:101400005B0741F7A0E0B1E046E051E061E070E049
:101410008D91E82FE295EF70F0E021A18F708B01A4
:1014200002C0000F111F8A95E2F7C801902F909516
:10143000922391A392A1892B82A34A175B0741F7BC
:10144000EAEBF2E0A4ECB2E084EC92E011921D929F
:101450008E179F07D9F785E00E941A0B0E94A106FC
:1014600060960FB6F894DEBF0FBECDBFDF91CF916F
:101470001F910F910C94890B0E94580B882309F13E
:101480008091CE0290E08C539D4F0E94B90B811148
:1014900014C08091EE018F5F8093EE01863078F06A
:1014A000E091CE02F0E0EC53FD4F80E090E011922D
:1014B000019685309105D9F702C01092EE010C9487
:1014C000AD068091CF0290E08C539D4F0E94E60BB9
:1014D0000E945D170C9497098F929F92AF92BF92D2
:1014E000CF92DF92EF92FF920F931F93CF93DF93F0
:1014F00006E011E0CAEBD2E08FEBE82E82E0F82E96
:10150000912CAA24A394B12C6E0188801882F80132
:101510008081E82FE295EF70F0E021A18F70A501A6
:1015200002C0440F551F8A95E2F7CA01822B81A39E
:10153000F8018081E82FE295EF70F0E092A18F70C2
:10154000950101C0220F8A95EAF7822F80958923A1
:1015500082A30E948A09E0E0F1E020E030E091916E
:10156000A92FA295AF70B0E090964C91688150E0A1
:101570009F7002C0559547959A95E2F740FD08C0C7
:101580009A2D022E01C0990F0A94EAF7892F01C003
:1015900080E0862B88832F5F3F4F26303105F9F698
:1015A000F8018081E82FE295EF70F0E091A18F7053
:1015B000950101C0220F8A95EAF7822F8095892331
:1015C00081A3F80181918F01E82FE295EF70F0E09F
:1015D00022A18F70A50102C0440F551F8A95E2F722
:1015E000CA01822B82A3219681E0F6019081981195
:1015F00001C080E0982AEC16FD0609F085CF6091C5
:10160000CF0270E06C537D4F292D45E08AEB92E0CC
:101610000E941B0B0E943C0A892DDF91CF911F91E4
:101620000F91FF90EF90DF90CF90BF90AF909F9081
:101630008F9008950895FF920F931F93CF93DF9398
:101640008C01F62ED72FC42F222349F081E08093FE
:10165000F1010E9431299093F0018093EF01809174
:10166000F1018823C1F08091EF019091F0010E9477
:101670003D29069780F0EF2DFD2FD8014C2F50E02B
:10168000CD01801B910B841795071CF48D918193DC
:10169000F7CF1092F101DF91CF911F910F91FF9041
:1016A000089555985D9889B185FB882780F908953C
:1016B0008091F201811112C08091D80080618093E5
:1016C000D8008AE18A95F1F700C08091D90080FDA9
:1016D00002C082E001C081E08093F20181E090913C
:1016E000F201913009F080E008950E94510B80933F
:1016F00010018091100166E0882311F080E001C0A4
:1017000086E00E948F0C0E94580B81110C94900B64
:1017100008950E94580B811102C00C94960B0895F5
:1017200062E070E081E191E00C94701A62E070E098
:1017300081E191E00C94791A0E946911882361F08B
:101740008CEF91E00E946F1181E090E00E94521BAB
:10175000892B11F40C946C1108958091FB01883051
:1017600039F460E08CEF91E00E943E131092FB018F
:101770000895CF93DF93D82FC92F0E949C0B80E050
:1017800090E00E94521B892BE9F4ED2FFC2F80E0A2
:1017900090E0DC01AB50BE4F2C9121930196853037
:1017A0009105B9F70E94CD14882319F00E94D11435
:1017B00001C080E08093F4018AEF91E00E94CE178F
:1017C00081E001C080E0DF91CF910895CF93DF9356
:1017D000D82FC92F0E94AD0BED2FFC2F80E090E099
:1017E0002191DC01AB50BE4F2C93019685309105C1
:1017F000B9F78091F4010E9452168AEF91E0DF91CF
:10180000CF910C94C517EF92FF920F931F93CF9334
:10181000DF93F62E472FE82FF0E0711106C0E45E4B
:10182000F74F6491762F862F72C0272F30E0E45E49
:10183000F74FE4910E2F10E056E0659FC001112490
:10184000CFEFD0E0BE010E9475315BEA5603C001C4
:10185000579F900D11248F0D911D8F0D911D982F65
:10186000990F890F7E01E21AF30AE09ED001E19EF2
:10187000B00DF09EB00D1124489FA0011124452FFA
:1018800055277E01E41AF50AE09EA001E19E500D65
:10189000F09E500D11247E01E81AF108E29EC0016D
:1018A000E39E900DF29E900D1124892F9927C81B5D
:1018B000D90BC09FC001C19F900DD09F900D1124E6
:1018C0006230710591F048F461157105E1F0613005
:1018D0007105A9F48B2F752F19C06430710561F063
:1018E00038F06630710579F00AC0892F7B2F0EC061
:1018F0008E2F7B2FE52F0AC08E2F792F02C0852FC8
:101900007E2FEB2F03C08B2F7E2FE92F6E2FDF91C1
:10191000CF911F910F91FF90EF90089508958093BC
:101920000B02609325010895CF93DF93762FE90191
:10193000682F842F0E94030C798368838A83DF9148
:10194000CF9108958091D002282F269530E021155F
:10195000310519F48170826005C02532310524F00B
:10196000817088648093D002089588E090E00C94A0
:10197000F431CF92DF92EF92FF926B017C010E94D3
:10198000A20CB701A60188E090E0FF90EF90DF90F5
:10199000CF900C941232E0EDF2E083E0808311826C
:1019A0008FEF828383831482A3E1B2E012968C913D
:1019B0001297836012968C936081718182819381EA
:1019C0000C94B90C8091AA0280FF08C08DE696E0C5
:1019D0009F938F930E944C060F900F908091AA02C4
:1019E00080FF0FC08091D00281701F928F9380E59D
:1019F00096E09F938F930E944C060F900F900F904C
:101A00000F908091AA0280FF0FC08091D00286952E
:101A10001F928F9385E396E09F938F930E944C06CD
:101A20000F900F900F900F908091AA0280FF0EC030
:101A30008091D1021F928F938BE196E09F938F93B9
:101A40000E944C060F900F900F900F908091AA0269
:101A500080FF0EC08091D2021F928F9381E096E0AA
:101A60009F938F930E944C060F900F900F900F90B2
:101A70008091AA0280FF0EC08091D3021F928F93A3
:101A800087EE95E09F938F930E944C060F900F90E6
:101A90000F900F908091AA0280FF0EC08091D40217
:101AA0001F928F938BEC95E09F938F930E944C062F
:101AB0000F900F900F900F9008958091D00280FFAB
:101AC00002C08695089580E008958091D402833005
:101AD00018F48F5F8093D4026091D0027091D1028C
:101AE0008091D2029091D3020C94B90C8091D402CF
:101AF000882319F081508093D4026091D0027091B4
:101B0000D1028091D2029091D3020C94B90C6091D1
:101B1000250170E08091D00280FF0AC080910B0205
:101B200023E0829FC00111248B529D4F0C94F61626
:101B300080910A0290912401891780F7E82FF0E044
:101B40009F01220F331FE20FF31FEB52FD4F118253
:101B5000108212828F5FF0CF9091D00290FF16C05A
:101B600090910A0220912401921770F4E92FF0E07D
:101B7000DF01AA0FBB1FEA0FFB1FEB52FD4F818352
:101B8000608342839F5FF0CF0C94870D0895CF93BD
:101B9000DF9300D01F92CDB7DEB79091D00290FFB7
:101BA0000AC09E012F5F3F4F0E94940C4B816981B8
:101BB0008A810E94AC0D0F900F900F90DF91CF9112
:101BC0000895CF93DF93EC01EC81F0E0E856F94FF4
:101BD0004491E0EDF2E0628181810E94C70D8C8129
:101BE0008F5F8C83DF91CF910895CF93DF93EC01CA
:101BF000E0EDF2E0438162818C810E94C70D8C810F
:101C00008F5F8C83DF91CF9108950F931F93CF93B4
:101C1000DF9300D01F92CDB7DEB78C018091040214
:101C200081110AC09E012F5F3F4F4FEF6FEF0E945F
:101C3000940C8A8180930402F8018481813051F0F0
:101C400028F0823061F4409104020AC080910402BD
:101C500040E007C06091040240E080E003C040E043
:101C600080E060E00E94AC0DF801848190E0019674
:101C700063E070E00E94893184830F900F900F9091
:101C8000DF91CF911F910F9108954F925F926F92C4
:101C90007F928F929F92AF92BF92CF92DF92EF92FC
:101CA000FF920F931F93CF93DF9300D01F92CDB776
:101CB000DEB7F82ED62EE42E622E9091D00290FF41
:101CC000C5C0E92FE695AE2FB0E0A958BE4F8C9164
:101CD000809313029E7F923061F49E012F5F3F4FED
:101CE0008F2D0E94940C4B8169818A810E94AC0DDA
:101CF00062C0823019F4E090D3025DC0863019F4DE
:101D0000F090D10258C08930D9F3893109F053C01D
:101D1000E9518E2F8170782E81E0C72CC826E69578
:101D2000F0E0E856F84FA590B490412CBB249CEE0F
:101D3000892E93E0992E609123014616D0F5042D4B
:101D400010E00A9DC0010B9D900D1A9D900D11246D
:101D500070E00E9475315F2C711002C0560E01C0F8
:101D6000561A8091AA0280FF11C0BF92AF921F92B3
:101D7000CF921F925F921F924F929F928F920E94DA
:101D80004C060FB6F894DEBF0FBECDBF80910A029D
:101D9000080F111D9801220F331F020F131F980106
:101DA0002B523D4F4E2D6D2D852D0E94940C43944A
:101DB000C2CF0E94870D8091D102F81208C0809195
:101DC000D202D81204C08091D302E81629F0809183
:101DD0001502826080931502F092D102D092D20255
:101DE000E092D3026620E9F06091D0027091D102B6
:101DF0008091D2029091D3020E94B90C8091AA02E4
:101E000080FF24C08091D3021F928F938091D202D1
:101E10001F928F938091D1021F928F9387EC93E052
:101E20000CC08091AA0280FF11C01F92EF921F92F6
:101E3000DF921F92FF9280EA93E09F938F930E941C
:101E40004C060FB6F894DEBF0FBECDBF0F900F90BB
:101E50000F90DF91CF911F910F91FF90EF90DF9046
:101E6000CF90BF90AF909F908F907F906F905F903A
:101E70004F900895E0EDF2E09181282F4381628137
:101E800088E0890F0C94450E81E00C943A0FE0ED48
:101E9000F2E09181282F4381628188EF890F0C94B1
:101EA000450E81E00C94470FE0EDF2E0628121E104
:101EB000620F08F46FEF282F438181810C94450E47
:101EC00081E00C94540FE0EDF2E0628121E1621BAD
:101ED00008F460E0282F438181810C94450E81E055
:101EE0000C94630FE0EDF2E0438121E1420F08F42E
:101EF0004FEF282F628181810C94450E81E00C9474
:101F0000720FE0EDF2E0438121E1421B08F440E072
:101F1000282F628181810C94450E81E00C94810F01
:101F200020E00C94450EFF920F931F93CF93DF9305
:101F3000EC01F12C0FEF10E060912301F616F0F4A4
:101F400080910A022F2D30E0280F311DC901880F22
:101F5000991F280F391F2B523D4F70E0C8010E9476
:101F60008931962F8C814091D3026091D202F99EE3
:101F7000800D11240E94940CF394DECF0E94870DF3
:101F80009A818C8190FF02C08F5F01C081508C8349
:101F9000DF91CF911F910F91FF9008958F929F92A3
:101FA000AF92BF92CF92DF92EF92FF920F931F9367
:101FB000CF93DF93EC018A8180FF03C0BB24BA94E6
:101FC00002C0BB24B3948C8181110DC081E0B81292
:101FD00006C08091230181508093060202C01092B6
:101FE000060281E08C83A12C4CE0942E8091230189
:101FF000A81608F044C080910A02CA2CD12C860190
:10200000080F111DC801880F991F080F191F0B52C7
:102010001D4FF80111821082128234E0E32EF12C60
:10202000812C80910602880D8D302CF0692D0E9444
:102030006731892F05C087FF03C090912301890F65
:10204000082E000C990BC816D90691F48091D30282
:102050008E9DA0018F9D500D112455954795559546
:10206000479598016091D2028091D1020E94940C10
:102070008B0CF1E0EF1AF108A1F6A394B7CF0E9400
:10208000870D8091060291E0B9120EC0811107C040
:10209000809123018150809306021C820FC08150E1
:1020A00080930602BC820AC090E0019660912301F1
:1020B00070E00E948931809306028C83DF91CF917A
:1020C0001F910F91FF90EF90DF90CF90BF90AF9056
:1020D0009F908F9008951F93CF93DF93EC018C8195
:1020E000811109C081E08C831092050292E09093E7
:1020F00022018093210180910A0290912401891785
:1021000070F4E82FF0E09F01220F331FE20FF31F5E
:10211000EB52FD4F1182108212828F5FF0CF10E0E0
:10212000609123011617C0F5E12FF0E070E0CF01B8
:102130000E94893120910A02820F20910502022E0D
:10214000000C330B90E0E217F307CCF02091220152
:10215000022E000C330B2E173F078CF09C01220F30
:10216000331F820F931F9C012B523D4F4091D3028E
:102170006091D2028091D1020E94940C0BC0FC01AC
:10218000EE0FFF1F8E0F9F1FFC01EB52FD4F1182C0
:10219000108212821F5FC4CF0E94870D809121019F
:1021A00020910502280F2093050290912201980F9B
:1021B0009093220119165CF4022E000C330B40910F
:1021C000230150E0415051092417350734F081951F
:1021D00080932101813009F41C82DF91CF911F91FE
:1021E00008950F931F93CF93DF938C01FC0184819B
:1021F000958101968170992795838483C0E0D5E508
:1022000080912301C81700F580910A022C2F30E03D
:10221000280F311DC901880F991F280F391F2B5214
:102220003D4F4C2F4695F80184819581840F911D77
:1022300081704091D3026091D2028D9F802D112434
:102240000E94940CCF5FDCCFDF91CF911F910F9153
:102250000C94870D0F931F93CF93DF93EC0100E055
:1022600010E080912301282F30E00217130724F596
:1022700090910A029801290F311DA901440F551FA1
:10228000240F351F2B523D4F869590E04C81081747
:1022900019071CF4442331F002C0411103C04091DE
:1022A000D30201C040E06091D2028091D1020E942D
:1022B000940C0F5F1F4FD5CF0E94870D8C8190E04B
:1022C0000196817099278C83DF91CF911F910F9197
:1022D000089580911502089510921502089525E041
:1022E000E0EDF2E0DC0101900D922A95E1F72091FA
:1022F00013023091140240911502FC0125833683AC
:1023000047830895E3E1F2E0118282818460828351
:1023100008956091D002669570E04BE050E086E24F
:1023200091E00E94DF31892B19F481E0809314023F
:102330000E94312990930D0280930C028091150226
:102340008460809315028091AA0280FF08C087E80C
:1023500093E09F938F930E944C060F900F900895E7
:10236000109214028091150284608093150280916E
:10237000AA0280FF08C08EE693E09F938F930E948D
:102380004C060F900F9008959091D00290FF59C085
:102390009170811102C0926006C0853210F098647D
:1023A00002C0880F982B9093D00280911502816013
:1023B000809315026623B1F06091D0027091D10232
:1023C0008091D2029091D3020E94B90C8091AA020E
:1023D00080FF1BC08091D00286951F928F9381E170
:1023E00095E00BC08091AA0280FF0FC08091D002BF
:1023F00086951F928F9383EF94E09F938F930E9413
:102400004C060F900F900F900F906091D002669540
:1024100070E04BE050E086E291E00E94DF31892BD2
:1024200019F00E94B01102C00E94891181E08093CE
:102430000F024091D3026091D2028091D1020C949C
:10244000900F0895682F9091D002969581E0890FA2
:10245000853208F081E00C94C41181E00C942212C2
:10246000682F9091D00296958FEF890F09F484E23E
:102470000C94C41181E00C94301261E00C94C411EE
:102480008091D00281608093D0028091AA0280FF67
:102490000DC01F9281E08F9385E894E09F938F9306
:1024A0000E944C060F900F900F900F908091D002D9
:1024B00086950C943D1260E00C94C4118091120238
:1024C000811165C08091AA0280FF08C084EB95E06D
:1024D0009F938F930E944C060F900F908091AA02B9
:1024E00080FF08C08EE995E09F938F930E944C0671
:1024F0000F900F900E94A627811110C08091AA0210
:1025000080FF08C086E795E09F938F930E944C065A
:102510000F900F900E944F280E94CB0C0E94B50C88
:102520006093D0027093D1028093D2029093D30231
:10253000809115028360809315026E7FC1F48091B3
:10254000AA0280FF08C08DE295E09F938F930E94BE
:102550004C060F900F900E94CB0C0E94B50C60931C
:10256000D0027093D1028093D2029093D3020E9442
:10257000A20C0E94E20C0E9482118091D00280FF86
:1025800003C086950E945B1281E080931202089539
:102590008091D0028E7F8093D0026091D0027091A2
:1025A000D1028091D2029091D3020E94B90C809105
:1025B000AA0280FF0FC08091D00281701F928F937A
:1025C0008DE494E09F938F930E944C060F900F90A0
:1025D0000F900F900E94B01180911502816080933E
:1025E00015022FEF80E792E0215080409040E1F704
:1025F00000C000000C94870D8091AA0280FF10C0DB
:102600008091D002809581701F928F938CEB94E023
:102610009F938F930E944C060F900F900F900F90F6
:102620008091D00280FD0C94C8120C9440128091CD
:10263000D0028E7F8093D0028091AA0280FF0CC0CE
:102640001F921F9283E194E09F938F930E944C0608
:102650000F900F900F900F900E94B0118091150273
:102660008160809315022FEF80E792E02150804037
:102670009040E1F700C000000C94870D1F93CF93AA
:10268000DF93EC01162F8F8180FF0FC0888180FFC0
:102690000AC08091D00281608093D00288818695A3
:1026A0000E94C41102C00E9417138F8181FF06C0CF
:1026B000212F4B816A8189810E94450E8F8182FF83
:1026C00008C08E81882319F00E94891102C00E94DF
:1026D000B0118F8183FF03C081E080930F02DF91EF
:1026E000CF911F910895EF92FF920F931F93CF9375
:1026F000DF9380911402882309F4BEC080911302F5
:10270000E091D002E695E81BE0930E02823049F496
:10271000F0E0EC56F94FE491CE2FD0E001EE1DE051
:1027200049C0863049F4F0E0EF56F94FE491CE2FDE
:10273000D0E005EF1DE03EC0893051F4E695F0E0B1
:10274000E257F94FE491CE2FD0E003E91FE032C009
:102750008F3051F4E695F0E0E557F94FE491CE2F34
:10276000D0E00EEC1FE026C0853149F4F0E0E857D8
:10277000F94FE491CE2FD0E00BE610E11BC0883179
:1027800081F0833239F4E6E8F6E0C591D49105E0B2
:102790001EE010C0843251F4C4EFD1E00AE211E12E
:1027A00009C0C8EED3E001EF10E104C0C0EDD7E0EE
:1027B0000EE81CE080910F02882389F010920F022E
:1027C0000E9431299E0120953095820F931F90938E
:1027D0000D0280930C02109211021092100280914F
:1027E0000C0290910D020E943D298C179D0708F460
:1027F00043C080910902882311F11092090280914F
:102800000702909108020E943D2980339547B8F055
:102810000E94312990930802809307028091AA02B6
:1028200080FF08C085E493E09F938F930E944C063D
:102830000F900F9080911502886080931502E090B0
:102840001002F0901102E0910C02F0910D02CE0FF7
:10285000DF1FD0930D02C0930C028CE092E0F801D0
:1028600009958091100290911102892B29F4EF288B
:1028700019F081E080930902DF91CF911F910F91B0
:10288000FF90EF900895882311F0FA0101C0FB0139
:102890000994CF93DF93C82FD62F0E945D0D8C171C
:1028A00040F00E945D0D8D1720F4DF91CF910C94C4
:1028B0002D128C2FDF91CF910C943D121F93CF934B
:1028C000DF93FB011281111163C0EC010E94DE262F
:1028D0008272FE01E25CFC45E431F10508F057C06C
:1028E000EA5AFF4F0C94BF310E94FC1251C04AE3D8
:1028F00052E16DE272E104C04DE252E16AE372E13D
:102900000E94431445C041E55FE064E47FE0F8CFF6
:1029100044E45FE061E57FE0F3CF4FE65FE060E62F
:102920007FE0EECF40E65FE06FE67FE0E9CF4DE885
:102930005FE06EE77FE0E4CF4EE75FE06DE87FE0C9
:10294000DFCF46E75DE065E67DE0DACF45E65DE0B6
:1029500066E77DE0D5CF81E017C065E082E010C07A
:1029600068E086E00DC06EE089E00AC064E18FE0B7
:1029700007C067E185E104C088E106C062E289E141
:102980000E94491405C083E20E943D1201C011E07B
:10299000812FDF91CF911F9108958091F90281706D
:1029A00008958091F90286958695869508950E94EE
:1029B000A627811102C00E944F280E94D72780932A
:1029C000F902282F26952695269530E026303105E8
:1029D00024F0877088628093F9028091F90280FF69
:1029E00004C086958695869501C080E00C945216A9
:1029F0002091F902822F869586958695482F50E082
:102A00004530510554F48F5F982F990F990F990F06
:102A1000822F8770892B8093F9028091F90281605F
:102A20008093F9020E94DB278091AA0280FF11C0E7
:102A30008091F9028695869586951F928F9384E002
:102A400098E09F938F930E944C060F900F900F90E9
:102A50000F908091F9028695869586950C94521672
:102A60008091F902982F969596959695A1F0915E92
:102A7000990F990F990F8770892B8093F902887F9E
:102A800091E009F490E08091F90290FB80F9809345
:102A9000F9020E94DB278091AA0280FF11C0809179
:102AA000F9028695869586951F928F938CEE97E016
:102AB0009F938F930E944C060F900F900F900F9052
:102AC0008091F9028695869586950C945216809190
:102AD000F90280FD1FC081608093F902813019F4F2
:102AE00089E08093F9028091F9020E94DB278091AE
:102AF000AA0280FF08C084EC97E09F938F930E9406
:102B00004C060F900F908091F902869586958695D8
:102B10000C94521608958091F90280FF14C08E7FA4
:102B20008093F9020E94DB278091AA0280FF08C0EF
:102B300081EB97E09F938F930E944C060F900F902C
:102B400080E00C9452160895CF93C091F902C170A1
:102B50008091AA0280FF0CC01F92CF9386ED97E070
:102B60009F938F930E944C060F900F900F900F90A1
:102B7000CC2319F0CF910C948B15CF910C94671541
:102B80009091F902892F8695869586958F5F8F7132
:102B90009770863038F4880F880F880F892B8093C0
:102BA000F90202C09093F9028091F902887F91E0C6
:102BB00009F490E08091F90290FB80F98093F9028A
:102BC0000E94DB278091AA0280FF11C08091F90248
:102BD0008695869586951F928F938DE997E09F93B2
:102BE0008F930E944C060F900F900F900F90809142
:102BF000F9028695869586950C945216863008F0D3
:102C000085E09091F9029770282F220F220F220F52
:102C1000922B9093F902987F21E009F420E09091A3
:102C2000F90220FB90F99093F9020C9452160E943D
:102C3000FE158091F9020C94DB279C01FB01828137
:102C4000882349F12D3BFCE53F07C9F040F42B3BBD
:102C5000ECE53E0769F02C3B3C4561F008952F3BC5
:102C60009CE5390791F070F0203C3C4589F00895CF
:102C700085E001C080E00E94171680E008950E9460
:102C80003015FBCF0E94F814F8CF0E94A415F5CFA1
:102C90000E94C015F2CF81E00895259A2D980895DD
:102CA0002D980895CF92DF92EF92FF92CF93C82F85
:102CB000863050F4811109C0809180008F77809315
:102CC00080000E94501606C0C5E080918000806898
:102CD000809380002C2F30E0AFEFBFEF0E94C53112
:102CE00025E030E040E050E00E949D31C9012C37E2
:102CF00064E1360728F469E070E00E94753129C06C
:102D0000DA01C9018A50974DAF4FBF4F6627782F20
:102D1000892F9A2F25EF38E241E050E00E949D3143
:102D200069017A01CA01B9010E944B319B01AC01D2
:102D3000C701B6010E944B31BB27A92F982F872FBF
:102D4000009721E0A207B10511F0BC0102C06FEFAE
:102D50007FEF7093890060938800CF91FF90EF9090
:102D6000DF90CF90089508950E944D1682E88093D9
:102D7000800089E1809381008FEF9FEF909387001F
:102D8000809386000C94D7142BB1342F30952323D5
:102D90003BB1432B3FB7F894FC01680F791FE6174E
:102DA000F70789F0819198E04BB9000000C087FFD8
:102DB0002BB9880F000000C000C000C02BB900C0B4
:102DC0009A9591F7ECCF3FBF08952AB1242B2AB9E9
:102DD0009B01220F331F620F731F0E94C41687ECE2
:102DE00090E00197F1F700C00000089540E40C94D2
:102DF000E51608950C94F91680911001882309F4C2
:102E000047C020913201A22FA295AF70B0E09196F9
:102E10003C9191972F7081E090E0AC01022E01C0AF
:102E2000440F0A94EAF7542F5095352391963C931A
:102E3000919792963C919297432B92964C939297AE
:102E400040913101E42FE295EF70F0E031A14F7035
:102E5000042E01C0880F0A94EAF7982F90959323C7
:102E600091A392A1892B82A390968C9190E002C0AD
:102E7000959587952A95E2F7817020A130E002C0F0
:102E8000359527954A95E2F720FD09C090E008C0E6
:102E900087EF8093320186EF80933101B2CF92E0C9
:102EA000892B80931B029091100181E098279093C9
:102EB0001702891B809316020895CF93E0911B029D
:102EC0005E2F550F550F20913201E22FE295EF70E2
:102ED000F0E080A190E02F7002C0959587952A952B
:102EE000E2F78170992740913101E42FE295EF706C
:102EF000F0E020A130E04F7002C0359527954A954B
:102F0000E2F7F901E170FF2720FF02C0E2E0F0E004
:102F1000E82BF92BE52BE0931B02C0911702EF7011
:102F2000F0E0E456FE4F908180911A02890F809361
:102F30001A0284306CF0EC2F0C2E000CFF0BE85EB4
:102F4000FD4F80818F5F808360E08C2F0E94FA1696
:102F500080911A028D3F6CF4EC2F0C2E000CFF0BAD
:102F6000E85EFD4F80818150808361E08C2F0E945C
:102F7000FA1680911A02837887FF03C081508C6F04
:102F80008F5F80931A02CF910895E0911702F0E0CD
:102F9000E85EFD4F2081FC0120830895FF920F938E
:102FA0001F93CF93DF93D09116020D2F10E0085E90
:102FB0001D4FFC01C081F8018081C81BFC2E1F142D
:102FC00054F4FA94F80180818F5F808360E08D2F44
:102FD0000E94FA16F4CF8C2FC7FD80E0C81BCC23CB
:102FE00051F0CF5FF80180818150808361E08D2FA7
:102FF0000E94FA16F4CFDF91CF911F910F91FF90AD
:1030000008950F931F93CF93DF93C62FD42F122FC2
:10301000FC0182818823C9F060931E020E9431293D
:1030200090931D0280931C0280E28C0F883008F080
:1030300057C0C77081E001C0880FCA95EAF7DF91D9
:10304000CF911F910F910C94871E80911E026813DF
:1030500030C080911C0290911D020E943D29883C45
:10306000910538F500E20D0FCD17B9F080E28C0F15
:10307000883040F4C77081E001C0880FCA95EAF734
:103080000E948E1E083028F581E09D2F977001C0A8
:10309000880F9A95EAF70E94871E812F0E94741E5E
:1030A0000830F0F4D77081E001C0880FDA95EAF7B4
:1030B0000AC080E28C0F883098F4C77081E001C0AC
:1030C000880FCA95EAF7DF91CF911F910F910C9469
:1030D0008E1E812FDF91CF911F910F910C94741E42
:1030E000DF91CF911F910F9108959C01CB01233F58
:1030F0004CE53407F9F078F4283DFCE53F07B9F0DA
:10310000293D4CE5340711F1273D3C4531F526E2D8
:1031100041EE61EE1EC0253FFCE53F0799F070F0DF
:10312000263F3C45D1F427E245EE66EE12C027E289
:1031300045EE0EC026E241EE60EE0BC027E245EE02
:1031400064EE07C026E241EE62EE03C028E241E0F1
:1031500065EE0E94011880E00895FC0182818823B9
:1031600019F010921E02089581E00895CF93DF9325
:10317000EC01FB018281882309F41FC1C230FCE508
:10318000DF0708F41BC1C6319CE5D90738F09E0162
:103190002A5F3C452930310508F010C10E94B9274B
:1031A0009093FF028093FE02C031ECE5DE0709F444
:1031B000C3C008F041C0C8308CE5D80709F49AC0F4
:1031C000F0F4C430ECE5DE0709F487C068F4C230DF
:1031D0008CE5D80709F477C0C330DC4509F0E3C0BB
:1031E0008091FE02826076C0C630ECE5DE0709F40D
:1031F0006EC008F07BC08091FE0288606BC0CC304E
:103200008CE5D80709F485C068F4CA30ECE5DE0720
:1032100009F474C008F079C00E94F9208091FE0280
:10322000806858C0CE308CE5D80709F476C008F025
:103230007FC08091FE028BC0CB3FECE5DE0709F436
:103240004FC018F5C3318CE5D80709F47DC078F478
:10325000C131ECE5DE0709F473C0C231DC4509F089
:10326000A2C00E94F9208091FE028F7733C0C53141
:103270008CE5D80709F472C008F486C0CA3FDC4563
:1032800009F091C08091FF023EC0CF3FFCE5DF070F
:1032900009F45FC058F4CD3F9CE5D90709F444C058
:1032A00008F43FC08091FF0282602DC0C130FDE56F
:1032B000DF0709F475C008F45DC0C230DD4509F0D0
:1032C00072C080E06EC08091FE02816003C0809178
:1032D000FE0280618093FE0266C08091FE0211C0F2
:1032E0008091FF0282608093FF025DC08091FE02A8
:1032F0008062F0CF8091FE028064ECCF8091FE026C
:1033000088608460E7CF8160EECF8091FE028E7F7F
:10331000E1CF8091FE028D7FDDCF8091FE02877F1D
:10332000D9CF8091FF0218C08091FF028D7FDBCF43
:103330008091FE028F7ECECF8091FE028F7DCACF1C
:103340008091FE028F7BC6CF8091FE02877F8B7FAC
:10335000C1CF8091FF028D7F8E7FC5CF8091FE020D
:1033600082FB222720F991E0922790FB82F990FBC3
:1033700083F9B0CF8091FF02982F909591708E7F46
:10338000892B90FB81F9AFCF0E94F9208091FE023A
:1033900087FB222720F991E0922790FB87F99ACFAB
:1033A00081E00E9451288091FE029091FF020E94CC
:1033B000CA270E94F92080E001C081E0DF91CF910F
:1033C0000895CF93DF9386319C4541F5EB010E9430
:1033D000DE26982F8A812091330130913401882391
:1033E00079F09A7A81E009F480E080931F029111CC
:1033F00002C069E201C065E3C9010E9498280AC0C1
:1034000080911F02811102C069E201C065E3C90118
:103410000E949A280E942C2780E001C081E0DF9161
:10342000CF9108958EE1489B02C08150E1F7489BFF
:10343000FECF0895589880E28A95F1F7589A08953A
:10344000FC012AE02A95F1F790E020E080E031E0ED
:10345000261779F040E14A95F1F7880F489B02C0A2
:103460008160932700C0000040E14A95F1F72F5F8B
:10347000EFCF20E12A95F1F729B100C0000030E13B
:103480003A95F1F7217092272081920F9083089549
:10349000EF92FF920F931F93CF93DF931F92CDB7BD
:1034A000DEB719828C017C01E60EF11C0E151F059A
:1034B00059F00E94121A68E0CE0101960E94201A6B
:1034C000F80181938F01F2CF81E09981911180E021
:1034D0000F90DF91CF911F910F91FF90EF90089582
:1034E000909322028093210260932002509A589A6E
:1034F00008959093220280932102609320025098B5
:10350000589AE89AE9E6F0E080818C7F80830895FC
:10351000615091E001C0990F6A95EAF720E031E02F
:10352000992361F0492F482319F0589A232701C0A5
:10353000589840E24A95F1F79695F2CF222311F080
:10354000589A01C0589880E28A95F1F758980895E2
:10355000FF920F931F93CF93DF93EC018C01060F23
:10356000111DC017D10741F0F9900E941A1A68E0A6
:103570008F2D0E94881AF5CFDF91CF911F910F9167
:10358000FF9008951F920F920FB60F9211240F9380
:103590001F932F933F934F935F936F937F938F93DB
:1035A0009F93AF93BF93EF93FF93CF93DF931F92BC
:1035B000CDB7DEB719820E94121A67E0CE010196DC
:1035C0000E94201A382F369536953695932F96956A
:1035D0009570232F2570920F292F2370969596951D
:1035E0008770920F891348C08981811145C08091ED
:1035F0002002831708F440C080E18A95F1F7589AB9
:10360000509AA2E0AA95F1F700C000912102109112
:103610002202B8E03B9F000D111D11245898F801BB
:103620006581662321F0868197810E94A81A0E94F5
:103630001A1AF0E1FA95F1F758985098589A80E1E3
:103640008A95F1F7D80112966C911297662369F06A
:1036500013968D919C9114970E94481AD801ED9170
:10366000FC91811105C082E004C0D801ED91FC916C
:1036700088E080830E94121A0F90DF91CF91FF9112
:10368000EF91BF91AF919F918F917F916F915F91DA
:103690004F913F912F911F910F910F900FBE0F905F
:1036A0001F9018950F931F93CF93DF9320912002C3
:1036B00030E0281739070CF471C09C0193E0220F09
:1036C000331F9A95E1F7C0912102D0912202C20FD7
:1036D000D31FF894509A589845E04A95F1F70000A6
:1036E000982F969595708570890F982F9370869571
:1036F0008695890F8901082B0E941A1A84E08A9501
:10370000F1F700C067E0802F0E94881A40E14A95D7
:10371000F1F75098589A489902C000C0FCCF87E052
:1037200090E0489B0EC0019751F4509A589AE88156
:10373000F98181E08083789481E090E031C000C01D
:10374000F0CF6D81662381F08E819F810E94481A9F
:1037500081110AC0509A589AE881F98182E08083E9
:10376000789482E090E01CC00E94121A80E28A9550
:10377000F1F75898509A40E14A95F1F76A8166232B
:1037800021F08B819C810E94A81A0E941A1AE8815C
:10379000F9811082789480E090E002C084E090E0AB
:1037A000DF91CF911F910F910895909328028093FC
:1037B00027020895E0912702F0912802309721F026
:1037C0000190F081E02D099480E00895EF92FF923E
:1037D0000F931F93CF93DF93E0912702F09128027C
:1037E0003097B1F18C010280F381E02D0995809131
:1037F000AA0282FF2DC080FF04C084E299E00E94EB
:10380000B305E80118E08EE1E82E89E0F82E8091FA
:10381000AA0280FF0BC088811F928F93FF92EF92C4
:103820000E944C060F900F900F900F901150219610
:103830001111EDCF8091AA0280FF0AC08CE199E0BE
:10384000DF91CF911F910F91FF90EF900C94B305F2
:10385000DF91CF911F910F91FF90EF9008952091EC
:103860002502309126022817390771F0909326021D
:1038700080932502E0912702F0912802309721F0F1
:103880000680F781E02D099408952091230230915C
:1038900024022817390771F09093240280932302A1
:1038A000E0912702F0912802309721F00084F18501
:1038B000E02D0994089585B7806885BF85B7806835
:1038C00085BF089508950C94621C0C94631C0C949D
:1038D000621C0C94621C0E945B1C0E94671C0C946E
:1038E000651C0E9428290E9498090E94B1290E9403
:1038F000D7140E945E120C94691CCF93C82F80913C
:10390000AA0282FF1EC080FF04C08DE399E00E94DE
:10391000B3058091AA0280FF0CC01F92CF9388E369
:1039200099E09F938F930E944C060F900F900F90F9
:103930000F908091AA0280FF04C086E399E00E9464
:10394000B3058C2FCF910C94B806AF92BF92CF9253
:10395000DF92EF92FF920F931F93CF93DF93CDB738
:10396000DEB72A970FB6F894DEBF0FBECDBF0E9418
:103970006C0A0E94580B811111C08FEF89838A83D2
:103980001B820E9431298160782F9D838C8349811D
:103990005A816B818D810E943F1D40C08AE2A82E12
:1039A00082E0B82E00E010E0C02E802F0E943E0979
:1039B000E82EF501D1905F01D82631F40F5F1F4F3B
:1039C0000A30110589F7D9CF8091AA0281FD0E94A2
:1039D000440980E0FF24F3949D2D9F21D1F08E8334
:1039E000CF82EF2081E009F480E088870E943129AE
:1039F0008160782F9A8789874E815F8168858A8563
:103A00000E943F1DF801E65DFD4F8081F826F0829F
:103A100005C08F5FFF0C8630F9F6D0CF0E9473137C
:103A20000E94B3160E94DA1B909129028917B1F007
:103A30000E94DA1B809329022A960FB6F894DEBF03
:103A40000FBECDBFDF91CF911F910F91FF90EF90EF
:103A5000DF90CF90BF90AF900C947D1C2A960FB64C
:103A6000F894DEBF0FBECDBFDF91CF911F910F91B4
:103A7000FF90EF90DF90CF90BF90AF900895CF93DD
:103A8000DF93CDB7DEB72B970FB6F894DEBF0FBE2E
:103A9000CDBF4F83588769877A878B87DE01119660
:103AA00086E0FD0111928A95E9F785E0FE013796DF
:103AB00001900D928A95E1F749815A816B817C8151
:103AC0008D819E810E94C9232B960FB6F894DEBF8C
:103AD0000FBECDBFDF91CF910895FC018081918110
:103AE0000E949F260895CF93882309F49CC0C82F75
:103AF0008238C1F40E94DA1B81FD95C069E3809190
:103B00003301909134010E9498280E942C272FEFB6
:103B100081EE94E0215080409040E1F700C0000029
:103B200069E319C0833801F50E94DA1B80FD7BC070
:103B300063E580913301909134010E9498280E949E
:103B40002C272FEF81EE94E0215080409040E1F748
:103B500000C0000063E580913301909134010E9420
:103B60009A28CF910C942C278438C1F40E94DA1B38
:103B700082FD59C067E480913301909134010E9425
:103B800098280E942C272FEF81EE94E0215080404E
:103B90009040E1F700C0000067E4DDCF8CEF8C0FB0
:103BA000813AD0F46C2F80913301909134010E94BE
:103BB0006228882349F06C2F809133019091340161
:103BC0000E949A280E942C276C2F8091330190919B
:103BD00034010E949828C5CF80E28C0F883048F4C9
:103BE000C77081E001C0880FCA95EAF70E94E126FC
:103BF000B8CFEBE5EC0FE33040F4F0E0E652FE4FD7
:103C0000808190E0CF910C942F1CC85AC73158F492
:103C1000EC2FF0E0EE0FFF1FE455FE4F8081918105
:103C2000CF910C94451CCF910895882309F45BC073
:103C3000682F823879F40E94DA1B81FF54C069E34F
:103C400080913301909134010E9498280E942C2782
:103C500069E310C08338B1F40E94DA1B80FF43C0CF
:103C600063E580913301909134010E9498280E946D
:103C70002C2763E580913301909134010E949A28AA
:103C80000C942C27843879F40E94DA1B82FF2BC015
:103C900067E480913301909134010E9498280E943A
:103CA0002C2767E4E7CF8CEF860F813A18F380E288
:103CB000860F883048F4677081E001C0880F6A95EC
:103CC000EAF70E94E726DCCF8BE5860F833020F4ED
:103CD00080E090E00C942F1C685A673120F480E05B
:103CE00090E00C94451C0895CF93C82F0E94731D3B
:103CF000C93349F42FEF87EE93E021508040904084
:103D0000E1F700C000008C2FCF910C94151E882382
:103D100021F00E94E1260C942C270895882321F09D
:103D20000E94E7260C942C270895CF92DF92EF9201
:103D3000FF920F931F93CF93DF937C01062FC72F22
:103D4000FC01158112951F70D281D1110E94FE26AF
:103D50000E94D726882379F0DD2369F080E2800F66
:103D6000883048F082E00E9476270E94D72691E0B2
:103D7000D82ED92601C0D12CCC2EC2948FE0C822D7
:103D80008C2D90E0FC01E659FF4F0C94BF318C2F35
:103D9000807FCF70882311F0C295C07FDD2399F01A
:103DA000CC2309F482C180E2800F883010F0011129
:103DB00004C08C2F0E94E12603C08C2F0E94F126A4
:103DC0000E942C2772C1802F0E94151ECC2309F45B
:103DD00091C180E2800F883010F0011104C08C2F57
:103DE0000E94E72603C08C2F0E94F7260E942C27F2
:103DF00081C18C2F807FCF70803211F0C295C07F3F
:103E0000002319F00130C9F022C0DD2371F0112325
:103E100041F0113031F40E9411278C2B0E94192798
:103E200069C10E9411278C2B1DC0112319F011307C
:103E300009F460C10E94222725C0DD2321F016303D
:103E400008F058C10EC0153008F054C11BC0DD2366
:103E500061F0112331F0F701858180FF26C18F7059
:103E600085838C2F0E94871E45C1112359F0093389
:103E700009F02CC1FFEF27EE83E0F1502040804095
:103E8000E1F722C18C2F0E948E1E34C18C2F8695A3
:103E90008695837019F0813061F02CC1DD2321F00B
:103EA000802F9C2F937002C080E090E00E942F1C16
:103EB00029C1DD2321F0802F9C2F937002C080E068
:103EC00090E00E94451C1EC18C2F837009F045C0F4
:103ED000D11114C1402F429546954770440F440FAD
:103EE000602F6F70862F90E0A0E0B0E0042E04C039
:103EF000880F991FAA1FBB1F0A94D2F704FF10C096
:103F00000FE010E020E030E004C0000F111F221F7E
:103F1000331F4A95D2F7009510952095309503C030
:103F200000E010E09801C695C695C370BC01CD01B4
:103F3000602B712B822B932BC23049F058F4C13087
:103F400019F00E941A25DAC00E940825D7C00E94E5
:103F50002C25D4C00E940625D1C0DD2319F08C2F5A
:103F6000817001C08695882309F4C8C0402F42950E
:103F700046954770440F440F602F6F70862F90E076
:103F8000A0E0B0E0042E04C0880F991FAA1FBB1F39
:103F90000A94D2F704FF10C00FE010E020E030E0F8
:103FA00004C0000F111F221F331F4A95D2F700953E
:103FB00010952095309503C000E010E09801C6955B
:103FC000C695C370BC01CD01602B712B822B932B46
:103FD000C23049F058F4C13019F00E94DF258EC07C
:103FE0000E94CD258BC00E94F12588C00E944025EB
:103FF00085C0CF70DD2339F08C2F0E946625802F7D
:104000000E94871E7BC0802F0E948E1E8C2F0E94D4
:10401000872574C0023F01F128F4003F41F0013FC1
:10402000A1F03FC0033FF9F0043F39F13AC0DD236E
:1040300041F0153008F05EC08C2F8F710E94AC25C6
:1040400059C0163008F056C0F7CFDD2339F08C2F59
:104050008F710E9466254EC0DD23C9F38C2F8F71AE
:104060000E94872547C0DD2329F08C2F8F710E9485
:10407000512540C00E944C253DC0DD2349F0CF7141
:104080008C2F0E94662563E08C2F0E94612732C02E
:1040900081E00E947627123068F182E00E94762744
:1040A00029C0DD2331F0112391F2802F0E94731D6E
:1040B00021C0112399F2093349F49FEFE7EEF3E0B1
:1040C0009150E040F040E1F700C00000802F0E94D6
:1040D000151E10C04C2F4F70602FC7010E9436076D
:1040E0000E9477240FC04C2F4F70602FC7010E9491
:1040F000390708C088EF8C0D843020F40E94DA1B49
:104100000E94B806DD20C9F00E94D32680FD15C0AC
:10411000F70112820E94CD260E946625C7010E94E7
:10412000BE200E94CD26DF91CF911F910F91FF906D
:10413000EF90DF90CF900C948725DF91CF911F9166
:104140000F91FF90EF90DF90CF9008950F931F9302
:10415000CF93DF93EC01688179818A810E94AA263E
:104160008C010E9403260E94F424B801CE010E9413
:10417000951EDF91CF911F910F910895CF93DF93FB
:10418000FC019081818123813481232B31F08F3F89
:1041900031F481E09F3F19F403C081E001C080E069
:1041A00080FD0EC0EF01CF010E94D106882341F0AF
:1041B000CE010E94A620CE01DF91CF910C949706EC
:1041C000DF91CF9108950E94FE260E940E270E9443
:1041D0002C2780E090E00E942F1C80E090E00C945F
:1041E000451C80913301909134010E949C280C94CD
:1041F000E3200E94EE260C94F120E92FE295EF7067
:104200004E2F50E0FA013297EE30F105B0F4E65847
:10421000FF4F0C94BF31803F91F018F4883E68F452
:104220000EC0843F51F40BC0883E48F0813F29F412
:1042300006C093FB882780F9089580E0089581E007
:1042400008950E949F260E94FD200895CF93DF933A
:1042500000D000D01F92CDB7DEB70F900F900F9017
:104260000F900F90DF91CF910895CF93DF9300D0FF
:1042700000D000D0CDB7DEB726960FB6F894DEBFDB
:104280000FBECDBFDF91CF9108951F93CF93DF93E2
:10429000C091350216E080913602C81799F0D0E03F
:1042A0001C9FF0011D9FF00D1124E95CFD4F408122
:1042B000518162817381848195810E94352121968B
:1042C000C770E9CFDF91CF911F91089540916702A8
:1042D000509168026091690270916A0280916B024C
:1042E00090916C020C943521CF9380916C02829551
:1042F0008F7009F05FC080916902882309F45AC069
:1043000080913502B091360270916702A0916802E7
:1043100040916A0250916B0291E07F3F09F090E07A
:10432000692FC6E08B1709F445C04115510521F0EE
:10433000AF3F21F020E003C021E001C0262F90E034
:1043400020FD35C0C89FF001C99FF00D1124E95C24
:10435000FD4F21812A132BC02081271328C02281E1
:10436000211125C0238134812417350710F42150F1
:104370003109241B350B283C3105C8F420916C020F
:104380002F70206120936C0226E0289FF001299F66
:10439000F00D1124E45CFD4F80818F70806180837B
:1043A00087E692E00E94BE20CF910C9445210196B1
:1043B0008770B8CFCF910895AF92BF92CF92DF921E
:1043C000EF92FF920F931F93CF93DF93CDB7DEB79A
:1043D00061970FB6F894DEBF0FBECDBF8C0185E0AC
:1043E000F801DE011D9601900D928A95E1F7D80142
:1043F0004C9111965C9111971296EC903091670256
:104400006091680280916A0290916B02009731F08E
:104410006F3F31F421E03F3F19F403C021E001C0B8
:1044200020E0B22FB170BB2E20FD60C1F801C38027
:10443000D480A0906902AA2009F4EEC020916C02F9
:10444000C816D90628F0D601A81BB90BCD0104C0A7
:10445000809590958C0D9D1DFF24F394883C9105CB
:1044600080F0F12C207F09F09CC07C2DD98AC88A6D
:104470006E2D89890E94262187E692E00E94BE2047
:104480002DC1822F807F09F054C0561314C04313EE
:1044900012C0FE2CE1100FC02F70206120936C021F
:1044A0000E94662187E692E00E94BE2080916C0205
:1044B000F80185835CC1CD2831F05F3F31F481E0A4
:1044C0004F3F19F403C081E001C080E080FD03C0CC
:1044D00081E08E2502C080E090E0F82FF170FF2E81
:1044E00080FF1CC0809135022091360236E0821791
:1044F00009F41AC190E0389FF001399FF00D1124A2
:10450000E95CFD4F6181561306C06081461303C00C
:104510006281E61203C001968770E9CFFE2CEE207F
:1045200009F425C180916C02816080936C02F12CAA
:104530001EC1561309C0431307C0E11005C0809186
:104540006C02F8018583A4C04D875E878D859E85AA
:104550000E942121882379F1EE2069F120916C02DB
:10456000822F82958F7090E0029774F0809167029D
:104570009091680298878F831986DB86CA862C877C
:10458000CE0107960E94BE2086E0F801A7E6B2E0C1
:1045900001900D928A95E1F70E9474210E94662194
:1045A0000DC0561771F04D875E878D859E850E94E0
:1045B000212181111AC0C8010E94BE20FF24F3945A
:1045C000D6C04313F0CFE110EECF80916C02F8011A
:1045D0008583C8010E94BE2086E0E7E6F2E0DF01A5
:1045E0001D928A95E9F7FA2CC2C0EE2021F32091A2
:1045F0006C02822F82958F7090E002972CF280914E
:104600006702909168029A8389831B82DD82CC8243
:104610002E83CE010196B6CFC816D90628F0F60132
:10462000E81BF90BCF0104C0809590958C0D9D1D62
:10463000883C910548F0F12C7C2DD98AC88A6E2DD2
:1046400089890E9426214AC0FE2CEE2009F4B3CFAE
:10465000561333C0431331C020916C0220FD24C097
:10466000822F82958F70482F50E041155105E1F05F
:10467000D80115962C9315974F30510549F08F5F4F
:10468000982F9295907F822F8F70892B15968C93FF
:10469000C8010E94BE2086E0F801A7E6B2E00190C2
:1046A0000D928A95E1F73DC086E0F801A7E6B2E0F9
:1046B00001900D928A95E1F75AC04D875E878D85EE
:1046C0009E850E94212181115FCF80916C028160C3
:1046D00080936C02C8010E94BE2049C0E7E6F2E068
:1046E00086E0DF011D928A95E9F71BC0EE2009F4F0
:1046F00062CF4D875E878D859E850E942121F82E91
:10470000882309F458CF86E0F801A7E6B2E00190CB
:104710000D928A95E1F787E692E00E946D1D0E9456
:1047200074210E94662123C04D875E878D859E85FA
:104730000E949F26292F22952F70223028F49F70E7
:1047400039F0811105C00BC0243028F49F7049F462
:10475000805E883020F0C8010E94BE20BF2CFB2C58
:1047600006C0D80115969C91907F91F7F8CF8F2DB8
:1047700061960FB6F894DEBF0FBECDBFDF91CF912B
:104780001F910F91FF90EF90DF90CF90BF90AF906F
:1047900008951F93CF93DF93CDB7DEB72C970FB655
:1047A000F894DEBF0FBECDBF4F83588769877A87E5
:1047B0008B879C87CE0107960E94DC218823D1F04D
:1047C0009F8188852A853B85232B31F08F3F31F4EB
:1047D00081E09F3F19F403C081E001C080E080FDCB
:1047E00047C04F81588569857A858B859C850E9455
:1047F00035213EC086E0FE013796DE01119601901C
:104800000D928A95E1F7FF81E8856A857B856115C0
:10481000710531F0EF3F31F481E0FF3F19F403C03F
:1048200081E001C080E080FD23C02091360230E0AD
:10483000C9010196877099274091350250E084178D
:104840009507F1F1F983EA837D836C8396E0929F6B
:10485000D001939FB00D1124A95CBD4FFE0131968C
:1048600001900D929A95E1F7809336020E944521BE
:1048700016E08091350290913602891771F1189FE8
:10488000C0011124895C9D4F0E94DC21882329F1FD
:10489000E09135021E9FF0011124E95CFD4F40813B
:1048A000518162817381848195810E94352180913B
:1048B000350290E001968770992780933502D9CF11
:1048C0000E94F9201092360210923502E7E6F2E0DB
:1048D00086E0DF011D928A95E9F72C960FB6F894D1
:1048E000DEBF0FBECDBFDF91CF911F910895EF9234
:1048F000FF920F931F93CF93DF938C01892B09F4C1
:104900006CC0F12CEE24E394E8012196F801849127
:10491000843740F4843008F051C0813081F0823017
:1049200019F15BC0853709F444C0A8F19CE7980FE2
:10493000903708F052C08F770E94151E41C00E5F5D
:104940001F4FFE01849190E2980F983050F48770C9
:10495000FE2D01C0FF0F8A95EAF78F2F0E940127D5
:1049600014C00E94731D2DC00E5F1F4FFE01849165
:1049700090E2980F983060F48770FE2D01C0FF0F11
:104980008A95EAF78F2F0E9407270E942C2719C0CB
:104990000E94151E16C00E5F1F4FFE01C491CC234E
:1049A00081F08FE99FE00197F1F700C00000C1504E
:1049B000F6CF0E5F1F4FFE01F49003C00E94731DDF
:1049C0008E018F2D882309F49FCFEFE9FFE0319707
:1049D000F1F700C000008150F5CFDF91CF911F911A
:1049E0000F91FF90EF900895089508950C94F52489
:1049F0000C94F6240E94F8246093990270939A0212
:104A000080939B0290939C020C94E3200C94FA24D4
:104A10000F931F930091990210919A0220919B028B
:104A200030919C02602B712B822B932B1F910F9145
:104A30000C94FA240F931F930091990210919A02FB
:104A400020919B0230919C02602371238223932347
:104A50001F910F910C94FA240F931F9300919902C8
:104A600010919A0220919B0230919C02602771273D
:104A7000822793271F910F910C94FA240C94F5240C
:104A80000E943E2560939502709396028093970250
:104A9000909398020C94E32060E070E0CB010C94BA
:104AA00040250F931F9341E050E060E070E08A01E1
:104AB0009B0104C0000F111F221F331F8A95D2F7DC
:104AC000C901B8011F910F910C9440250F931F93BA
:104AD00041E050E060E070E004C0440F551F661FE5
:104AE000771F8A95D2F78091950290919602A091B6
:104AF0009702B09198028A019B01082B192B2A2B4F
:104B00003B2BC901B8011F910F910C9440250F93C5
:104B10001F9341E050E060E070E004C0440F551F77
:104B2000661F771F8A95D2F74095509560957095CE
:104B30008091950290919602A0919702B09198026F
:104B40008A019B01082319232A233B23C901B801A9
:104B50001F910F910C9440250F931F9341E050E05B
:104B600060E070E004C0440F551F661F771F8A95F0
:104B7000D2F78091950290919602A0919702B09100
:104B800098028A019B01082719272A273B27C90178
:104B9000B8011F910F910C9440250F931F93009122
:104BA0009502109196022091970230919802602B05
:104BB000712B822B932B1F910F910C9440250F93F7
:104BC0001F930091950210919602209197023091C7
:104BD000980260237123822393231F910F910C94D9
:104BE00040250F931F9300919502109196022091FA
:104BF00097023091980260277127822793271F918F
:104C00000F910C9440250895292F220F920F990F90
:104C1000890FE82FE695E695E695877051E001C08B
:104C2000550F8A95EAF785E0E89FF0011124E359D2
:104C3000FD4F20E030E070E04081CB01022E02C049
:104C4000969587950A94E2F781708195842785234C
:104C5000842781932F5F3F4F2530310569F70895F1
:104C6000292F220F920F990F890F682F669566954D
:104C70006695982F977085E0689FB001112440E0F9
:104C800050E080E0FB01E40FF51FE359FD4F208168
:104C900030E0092E02C0369527950A94E2F721707C
:104CA0003327042E01C0220F0A94EAF7822B4F5FAC
:104CB0005F4F4530510531F70895BF92CF92DF9293
:104CC000EF92FF920F931F93CF93DF938C01C090CD
:104CD0009502D0909602E0909702F0909802809111
:104CE000990290919A02A0919B02B0919C02C82ACD
:104CF000D92AEA2AFB2ACFE1D0E0D701C6010C2E3F
:104D000004C0B695A795979587950A94D2F780FD2C
:104D100004C0219790F7B12C07C0BC2EB8018C2F8E
:104D20000E9455070197A9F38B2DDF91CF911F9119
:104D30000F91FF90EF90DF90CF90BF900895CF93A9
:104D4000DF93EC010E945D26BE010E945507DF91B2
:104D5000CF9108951F93CF93DF93EB01909134028D
:104D6000992321F0CB010E949F2613C0882349F08C
:104D7000CB010E945D26182F682FCE010E940426C9
:104D800004C0CB010E943026182FBE01812F0E9443
:104D90005507DF91CF911F91089580919D028595D0
:104DA00085958595089580919D02877008959091CD
:104DB0009D02977081E009F480E008958091A90236
:104DC00008959091A902892B8093A9020895809556
:104DD0009091A90289238093A90208951092A902B3
:104DE00008959091A802892B8093A8020895809538
:104DF0009091A80289238093A80208951092A80296
:104E000008959091A702892B8093A7020895809519
:104E10009091A70289238093A70208951092A70278
:104E2000089580919E02089508950C9414270C947F
:104E3000152790919E02981721F080939E020C9462
:104E40001727089580919E02882329F010929E02D0
:104E500080E00C9417270895E0913301F09134011C
:104E60008091A9028083E0913301F0913401908117
:104E70008091A802892B8083E0913301F091340165
:104E800090818091A702892B808380919E02882344
:104E900081F0E0913301F09134019081892B80837E
:104EA00080913301909134010E94562881110E9413
:104EB000222780913301909134010C94E61B0C94CD
:104EC000142798E0899F90011124262B20939D029E
:104ED0000E94662580919D028595859585950C9407
:104EE0005F2710929D0280E00C945F2720919D0225
:104EF0008095822380939D02982F977079F430E0FB
:104F0000482F082E000C550B2417350739F08595CE
:104F1000859585950E9487250C9471270895909317
:104F2000ED018093EC0108958295982F937344E0EE
:104F3000949F900111248C7C86958695282B822F36
:104F40008575880F2A7A2695822B089580E090E057
:104F50000E94FA3121E08C3E9E4F09F020E0822F22
:104F6000089582E090E00C94EC3183E090E00C94A2
:104F7000EC31CF9384E090E00E94EC31C82F81E2C5
:104F800090E00E94EC312C2F30E0A901582BCA018F
:104F9000CF910895CF93C92F682F84E090E00E94AD
:104FA00000326C2F81E290E0CF910C94003286E0C9
:104FB00090E00C94EC31682F86E090E00C94003285
:104FC000AB01BC018FE090E00C941232AB01BC014C
:104FD00083E190E00C94123260E070E0CB010C941D
:104FE000E62760E070E0CB010E94E0270C94EC27FC
:104FF0006CEE7EEF80E090E00E941E3260E082E086
:1050000090E00E94003260E083E090E00E94003275
:105010001092990210929A0210929B0210929C0296
:1050200060E084E090E00E94003260E081E290E085
:105030000E94003260E085E090E00E94003260E073
:1050400086E090E00E9400326FEF87E090E00E94DF
:10505000003240E050E0BA0188E090E00E94123255
:1050600060E08DE090E00E94003240E050E0BA0144
:1050700088E190E00E94123260E087E190E00E94B7
:10508000003240E050E0BA018CE190E00E94123220
:1050900060E080E290E00E9400320C94F1270C94D2
:1050A000F827682F8EE090E00C940032FC013296D5
:1050B00097E080E0915029F021912223D9F38F5F6E
:1050C000F9CF0895662349F0FC01329608962191A4
:1050D000621729F0E817F907D1F780E0089581E019
:1050E00008959C01FC0132969FEF80E041914617A4
:1050F00089F09F3F19F4411101C0982F8F5F8630CE
:10510000A9F79F3F39F0F901E90FF11D97FDFA95D5
:105110006283089508959C012A5F3F4FFC014281FC
:10512000461301C01282019682179307B9F70895BA
:105130000C9471280C948B28029626E0FC011192A5
:105140002A95E9F7089508950C94A3280C94A328B0
:10515000CF930E94A6280E946C0A0E94A428C0E057
:105160008C2F0E943E09811104C0CF5FCA30C1F765
:1051700001C081E0CF9108950C94A3280C94BC2821
:105180000E94BE2880910403843061F11092AB022A
:1051900020E488E190E00FB6F894A8958093600031
:1051A0000FBE2093600080E00E94521680E00E94B3
:1051B000B8060E94BE2883B7817F846083BF83B70F
:1051C000816083BF7894889583B78E7F83BF0FB645
:1051D000F894A89580916000886180936000109297
:1051E00060000FBE08950C94A3280E94F9200E942D
:1051F000D7140E94DA1B0E94B8060C94F3281F9261
:105200000F920FB60F9211248F939F93AF93BF937A
:105210008091AB02811113C08091FA029091FB0240
:10522000A091FC02B091FD024196A11DB11D809399
:10523000FA029093FB02A093FC02B093FD02BF918F
:10524000AF919F918F910F900FBE0F901F90189567
:1052500082E084BD93E095BD9AEF97BD80936E0088
:1052600008952FB7F8948091FA029091FB02A091D3
:10527000FC02B091FD022FBF0895CF92DF92EF9212
:10528000FF920F931F932FB7F8944091FA02509119
:10529000FB026091FC027091FD022FBF6A017B014D
:1052A000EE24FF248C0120E030E0C016D106E20697
:1052B000F30610F4415051099A01281B390BC9011A
:1052C0001F910F91FF90EF90DF90CF900895789409
:1052D0001F920F920FB60F9211248F939F93AF934B
:1052E000BF938091FA029091FB02A091FC02B091D1
:1052F000FD020196A11DB11D8093FA029093FB025D
:10530000A093FC02B093FD02BF91AF919F918F914A
:105310000F900FBE0F901F90189581E08093E000D2
:1053200080E28093D8001092C9008FE19EE401973B
:10533000F1F700C0000087E090EBDC0180930D03E3
:1053400090930E03A0930F03B09310039CE088E1A9
:105350000FB6F894A895809360000FBE90936000FC
:10536000FFCF0E94A627811102C00E944F280E94F1
:10537000B1278093AA020E94B9279093FF028093DD
:10538000FE020E94B527682F70E080E090E00C9448
:1053900006258091B702089508959FB7F89410925A
:1053A000AE029FBF90910403943009F057C09091D2
:1053B000E9009F703091EC00232F217030FD20E830
:1053C000922B23E02093E9002091EB0020FF43C0C3
:1053D0002091EE0027FF3FC02091AC02222321F054
:1053E0002091E80025FF37C01092AC0226E03091F2
:1053F000E80035FD15C030910403343061F530917B
:10540000EB0035FD28C0215021F481E08093AC02EF
:1054100022C0EFE9FFE03197F1F700C00000E7CFCD
:105420008093F1008091E80085FD0AC08091E8003A
:1054300080FFFCCF8091E8008E778093E80006C063
:105440008FB7F89421E02093AE028FBF9F709093A6
:10545000E90080E008959F709093E9008FEF089530
:10546000CF93DF9300D01F92CDB7DEB790910403A6
:10547000943019F589837B836A8382E08093E90005
:105480008FEF9091E800815095FD06C095ED9A95BB
:10549000F1F700008111F5CF8091E80085FF0DC084
:1054A00040E050E063E070E0CE0101960E94AE2C37
:1054B0008091E8008E778093E8000F900F900F9016
:1054C000DF91CF910895CF93DF93EC010E94912C4F
:1054D000823011F0843031F4BE0184E0DF91CF914D
:1054E0000C94302ADF91CF910895BC0183E00C9495
:1054F000302ACF93DF93EC010E94912C823011F07F
:10550000843039F581E08093E9008FEF9091E800D5
:10551000815095FD06C095ED9A95F1F70000811137
:10552000F5CF8091E80085FF14C040E050E068E0CE
:1055300070E0CE010E94AE2C8091E8008E778093BF
:10554000E80088E0FE01AFEAB2E001900D928A9592
:10555000E1F7DF91CF91089585E799E00E94B305C7
:1055600080910303811109C00E943F2E0E949C2E4E
:105570008091E20084608093E200089581E799E0E1
:105580000E94B3051092030308958DE699E00C94F0
:10559000B30589E699E00C94B30585E699E00E948D
:1055A000B3050C94F5282091AD022F5F822F62E3A2
:1055B0000E945B31992319F02093AD020895109257
:1055C000AD028091AE02882371F180910403843092
:1055D00041F58091E9008F702091EC00922F91703D
:1055E00020FD90E8892B93E09093E9009091EB00E7
:1055F00090FF14C09091EE0097FF10C09091E800CA
:1056000095FF03C01092F100F9CF9091E80090FF50
:1056100005C09091E8009E779093E8008F7080938A
:10562000E9001092AE02089542E061EC81E00E9430
:10563000B82D42E261EC82E00E94B82D42E261ECBA
:1056400083E00C94B82D80910603833009F460C088
:1056500030F4813071F0823009F499C008958A30B5
:1056600009F485C08B3009F46BC0893009F0A7C0FC
:1056700020C080910503813A09F0A1C08091E80023
:10568000877F8093E8008091090390910A03892B1A
:1056900021F468E08FEA92E003C060E080E090E0EF
:1056A00070E00E94F92C8091E8008B778093E800ED
:1056B000089580910503813209F081C0809109032A
:1056C00090910A03029708F07AC08091E800877FE2
:1056D0008093E8008091E80082FD05C0809104037A
:1056E0008111F8CF6CC02091F3008091F20090E01E
:1056F000922B029729F48091F1008B7F813021F465
:105700008091F1008093B7028091E8008B7753C0BD
:1057100080910503813A09F052C08091090390916C
:105720000A03892B09F04BC08091E800877F8093A2
:10573000E8008091E80080FFFCCF80913F0136C0F7
:10574000809105038132D9F58091090390910A0374
:10575000892BA9F58091E800877F8093E8000E945B
:10576000ED2D8091070380933F010C94F9208091E7
:105770000503813221F58091E800877F8093E8005E
:105780000E94ED2D809108038093B80208958091C6
:105790000503813AA1F48091E800877F8093E800B7
:1057A0008091E80080FFFCCF8091B8028093F100E7
:1057B0008091E8008E778093E8000C94ED2D089599
:1057C00084B7877F84BF0FB6F894A8958091600056
:1057D000886180936000109260000FBE90E080E8C6
:1057E0000FB6F89480936100909361000FBE0E9401
:1057F0006B1C0E943F2E0E949C2E8091E2008460D0
:105800008093E2008DEC99E20E948F2778940E94A9
:1058100030310E94711C85E391E00E94D51B84E524
:1058200099E00E94B30580910403853089F480E5F6
:1058300099E00E94B3050E94C0288091020388234A
:1058400091F30E94A828882371F30E94982CEBCF33
:105850000E94A51CE8CF0C942D2C292F3327233030
:105860003105C9F060F42130310581F02230310575
:1058700009F047C08BE590E02BEB39E046C02132C0
:10588000310511F12232310561F13BC082E190E036
:1058900026E13AE03AC099278130910561F040F065
:1058A0008230910559F0039761F5E9E7F9E008C006
:1058B000E7EBF9E005C0E7EAF9E002C0EFE7F9E05D
:1058C000849190E09F0121C063307105D0F4660F90
:1058D000771FFB01EA51FE4F2081318189E090E082
:1058E00014C06330710568F4FB01EE0FFF1FE05236
:1058F000FE4F20813181FB01E352FE4F808190E019
:1059000004C080E090E020E030E0FA0131832083A1
:10591000089580910403843011F081E0089582E0BD
:1059200008958091B902811102C00C94892C0895C8
:1059300080E189BD82E189BD09B400FEFDCF80917F
:10594000D8008F7D8093D8008091E00082608093A2
:10595000E0008091E00081FDFCCF0895CF92DF92BE
:10596000EF92FF920F931F93CF93DF93EC018B0184
:105970007A010E940C2E811133C0E114F10439F038
:10598000F70180819181081B190BC80FD91FC12C09
:10599000D12C0115110519F18091E80085FD16C083
:1059A0008091E8008E778093E800E114F10449F0DB
:1059B000F70180819181C80ED91ED182C08285E015
:1059C0000FC00E940C2E882321F30AC08991809376
:1059D000F10001501109FFEFCF1ADF0ADACF80E0A2
:1059E000DF91CF911F910F91FF90EF90DF90CF90BB
:1059F000089520910B0330910C032617370748F0C8
:105A00006115710539F42091E8002E772093E800A4
:105A100001C0B901FC0120E06115710579F18091A7
:105A200004038823F1F18530F1F18091E80083FDD2
:105A30003CC08091E80082FD2EC08091E80080FF8C
:105A4000EBCF2091F3008091F20090E0922B611552
:105A5000710551F08830910538F421912093F100BF
:105A6000615071090196F3CF21E0089709F020E019
:105A70008091E8008E778093E800CECF2111CFCFC0
:105A80000AC080910403882361F0853061F0809121
:105A9000E80083FD0AC08091E80082FFF2CF80E039
:105AA000089582E0089583E0089581E008952091AB
:105AB0000B0330910C032617370748F06115710569
:105AC00039F42091E8002E772093E80001C0B90155
:105AD000FC0120E06115710591F180910403882398
