:100000000C9459050C94BD1A0C94A0050C94A005F1
:100010000C94A0050C94A0050C94A0050C94A005CC
:100020000C94A0050C94A0050C94B52E0C94872F6D
:100030000C94FA280C94A0050C94A0050C94A0052F
:100040000C94A0050C94A0050C94A0050C94A0059C
:100050000C94A0050C9462290C94A0050C94A005A6
:100060000C94A0050C94A0050C94A0050C94A0057C
:100070000C94A0050C94A0050C94A0050C94A0056C
:100080000C94A0050C94A0050C94A0050C94A0055C
:100090000C94A0050C94A0050C94A0050C94A0054C
:1000A0000C94A0050C94A0050C94A0056F14721478
:1000B00077147E14831488148D14921497149C144E
:1000C000A114A614A814AB14AE14B114B414B7142C
:1000D000B914BE14C21EC21EF41EF41E411F7520A8
:1000E000752075205F1FF41F0520052065207520F1
:1000F00075206E2006210621182118210F211821B4
:100100001821182106210621142118211821142153
:10011000F42F1B3013311B30133167308A30133109
:10012000E130F03029001E001F00200021002200D5
:100130002B0014001A00080015001700E00004004E
:100140001600070009000A00E1001D001B00060060
:100150001900050000000000E300015102513500C4
:100160002A00270026002500240023003100130068
:1001700012000C0018001C00340033000F000E00A9
:100180000D000B00E50038003700360010001100AC
:1001900000000000E6002C0028004C0000000000D9
:1001A000A800AA00A9000000000000000000000054
:1001B00000000000000001000000000000002F000F
:1001C000C25C01000100010000002F0200000000DD
:1001D000010001004C0026022D000000BB00AE0013
:1001E000BC0000002D0200000000520000000000D2
:1001F0002E0000004F005100500030002E02000081
:100200000000000000003002000000006200035106
:100210004C00270245003A003B003C003D003E00F8
:1002200000000000000000000000000000000000CE
:100230000000000000000000005CBF5C0000000047
:1002400000000000000000000000000000000000AE
:10025000440043004200410040003F000000000015
:10026000000000000000000000000000000000008E
:10027000000000000000000000000000000000007E
:10028000000000000000000000000000010001006C
:100290000100010001000100010001000100010056
:1002A0000100010001000100010001000100010046
:1002B0000100010001000100010001000000000038
:1002C0000100010001000100010001000100010026
:1002D0000100010001000100010001000100010016
:1002E0000100010001000100010001000100010006
:1002F00001000100010001000000000001000100F8
:100300000100010044454255473A20646973616227
:100310006C65642E0A0044454255473A20656E617B
:10032000626C65642E0A000A0025303862003A20AB
:100330000025303258000A722F63203031323334B6
:100340003536370A007267626C6967687420616EBF
:10035000696D6174696F6E207469636B207265707A
:100360006F727420746F20736C6176650A00726717
:10037000626C696768742074696D65722064697362
:1003800061626C652E0A007267626C69676874202E
:1003900074696D657220656E61626C65642E0A0019
:1003A0007267626C6967687420736574206873761D
:1003B000205B4E4F454550524F4D5D3A2025752CE0
:1003C00025752C25750A007267626C696768742050
:1003D00073657420687376205B454550524F4D5DC0
:1003E0003A2025752C25752C25750A007267626CDC
:1003F00069676874207261696E626F7720736574D3
:10040000206873763A2025642C25642C25642C25DD
:10041000750A007267626C69676874206469736149
:10042000626C65205B4E4F454550524F4D5D3A2002
:100430007267626C696768745F636F6E6669672E66
:10044000656E61626C65203D2025750A00726762E9
:100450006C696768742064697361626C65205B45D0
:100460004550524F4D5D3A207267626C69676874FF
:100470005F636F6E6669672E656E61626C65203DB5
:100480002025750A007267626C6967687420656E62
:1004900061626C65205B454550524F4D5D3A20725C
:1004A00067626C696768745F636F6E6669672E6503
:1004B0006E61626C65203D2025750A007267626C72
:1004C0006967687420746F67676C65205B45455089
:1004D000524F4D5D3A207267626C696768745F6362
:1004E0006F6E6669672E656E61626C65203D2025C2
:1004F000750A007267626C69676874206D6F646565
:10050000205B4E4F454550524F4D5D3A2025750AB0
:10051000007267626C69676874206D6F6465205B48
:10052000454550524F4D5D3A2025750A007267626D
:100530006C696768745F696E6974207267626C6960
:100540006768745F636F6E6669672E6D6F646520A0
:100550003D20302E20577269746520646566617590
:100560006C742076616C75657320746F20454550FE
:10057000524F4D2E0A007267626C696768745F693A
:100580006E6974206565636F6E66696720697320A4
:100590006E6F7420656E61626C65642E0A0072670E
:1005A000626C696768745F696E69742073746172E4
:1005B00074210A007267626C696768745F696E69AA
:1005C000742063616C6C65642E0A007267626C69EA
:1005D0006768745F636F6E6669672E7370656564C4
:1005E000203D2025640A007267626C696768745F49
:1005F000636F6E6669672E76616C203D2025640A04
:10060000007267626C696768745F636F6E666967C2
:100610002E736174203D2025640A007267626C6944
:100620006768745F636F6E6669672E687565203DE5
:100630002025640A007267686C696768745F636F7D
:100640006E6669672E6D6F6465203D2025640A0023
:100650007267626C696768745F636F6E6669672E44
:10066000656E61626C65203D2025640A00726762D8
:100670006C696768745F636F6E6669672045455093
:10068000524F4D3A0A0000047F3F1F643214643217
:1006900014783C1E1E140A052223252628292A2CFC
:1006A0002D2F3032333536383A3B3D3E40424345BC
:1006B00047494A4C4E5051535557595A5C5E6062F7
:1006C000646668696B6D6F71737577797B7D7F8107
:1006D000838587898A8C8E90929496989A9C9E9F07
:1006E000A1A3A5A7A8AAACAEAFB1B3B4B6B8B9BB25
:1006F000BCBEBFC1C2C3C5C6C7C9CACBCCCDCED094
:10070000D1D2D2D3D4D5D6D7D7D8D9D9DADADBDB80
:10071000DBDCDCDCDCDCDDDDDDDDDCDCDCDCDCDB17
:10072000DBDBDADAD9D9D8D7D7D6D5D4D3D2D2D160
:10073000D0CECDCCCBCAC9C7C6C5C3C2C1BFBEBC53
:10074000BBB9B8B6B4B3B1AFAEACAAA8A7A5A3A1C4
:100750009F9E9C9A98969492908E8C8A8987858386
:10076000817F7D7B79777573716F6D6B6968666466
:1007700062605E5C5A5957555351504E4C4A494736
:10078000454342403E3D3B3A3836353332302F2DDB
:100790002C2A292826252322FFAA7F55406261633F
:1007A0006B6C6967687420737465703A2025750AEC
:1007B000006261636B6C696768742064697361626D
:1007C0006C650A006261636B6C6967687420656EB2
:1007D00061626C650A006261636B6C6967687420B2
:1007E000746F67676C653A2025750A006261636BF8
:1007F0006C696768742064656372656173653A202B
:1008000025750A006261636B6C6967687420696EA4
:100810006372656173653A2025750A000001010164
:1008200001010101010102020202020202020203AD
:10083000030303030303030404040404040405057D
:100840000505050606060606070707070708080840
:1008500008090909090A0A0A0B0B0B0C0C0C0D0DEF
:100860000D0E0E0E0F0F0F10101111111212131387
:100870001414151516161717181819191A1A1B1B00
:100880001C1D1D1E1E1F202021222223242425265C
:1008900026272829292A2B2C2D2D2E2F3031323294
:1008A000333435363738393A3B3C3D3E3F404142A0
:1008B000434445464748494A4C4D4E4F5051535486
:1008C000555658595A5B5D5E5F616264656668693A
:1008D0006B6C6D6F7072737577787A7B7D7E8082BA
:1008E000838587888A8C8E8F91939596989A9C9E03
:1008F000A0A2A3A5A7A9ABADAFB1B3B5B7BABCBE13
:10090000C0C2C4C6C9CBCDCFD1D4D6D8DBDDDFE2DF
:10091000E4E7E9EBEEF0F3F5F8FAFDFF0A00253025
:10092000325820006B6579626F6172645F72657026
:100930006F72743A20000A0025303258006B6579D6
:10094000626F6172645F7365745F6C65643A200006
:100950005B735D004B6579626F61726420737461D3
:1009600072742E0A005B575D005B535D005B525D45
:10097000005B445D005B435D000403300000001C2D
:1009800003490072006900730020004B0065007984
:100990000062006F0061007200640000000E034BF3
:1009A0000065006500620069006F00000004030933
:1009B0000409025B00030100A0FA0904000001031E
:1009C00001010009211101000122400007058103F6
:1009D00008000A09040100010300000009211101B7
:1009E00000012232000705820320000A09040200E8
:1009F0000203000000092111010001222200070565
:100A000083032000010705030320000112011001E8
:100A10000000000810CB5612000401020301063149
:100A2000FF0974A1010975150026FF0095207508BE
:100A300081020976150026FF00952075089102C0F5
:100A400005010980A101850319012AB700150126B6
:100A5000B700950175108100C0050C0901A1018541
:100A60000419012AA002150126A002950175108122
:100A700000C005010906A101050719E029E71500D5
:100A80002501950875018102950175088101050709
:100A9000190029FF150026FF00950675088100053D
:100AA00008190129059505750191029501750391B4
:100AB00001C011241FBECFEFDAE0DEBFCDBF04B608
:100AC00003FE27C080910D0390910E03A0910F03A8
:100AD000B09110038730904BA740B04BD1F41092E7
:100AE0000D0310920E0310920F031092100314BE08
:100AF00084B7877F84BF0FB6F894A8958091600073
:100B0000886180936000109260000FBEE0E0F8E31F
:100B1000099511E0A0E0B1E0E2E6F4E602C005903C
:100B20000D92AC3EB107D9F723E0ACEEB1E001C0C5
:100B30001D92AD30B207E1F70E94DB2B0C942F32EF
:100B40000C940000FF93EF93E091EC01F091ED0124
:100B5000309709F00995EF91FF910895FC01859177
:100B6000803011F0EFDFFBCF0895FF27E0E230E2A5
:100B700047FF0CC0419597FF09C0EDE26095709565
:100B800080959095611D711D811D911D27FF02C0EB
:100B9000219530E350E2AA27660F771F881F991F1F
:100BA000AA1FA41710F0A41B63955A95A9F7AA30A1
:100BB00008F0A95FA05DAF93F395611571058105FC
:100BC000910541F7ED3211F4EF93F395F21718F414
:100BD0003F93F395FBCF8F91B5DFFA95E1F7089539
:100BE000E991F9918591803021F0853219F0AADFE1
:100BF000F9CF089520E0E89455915532C1F3503370
:100C000011F4689455915A3348F4505390F3220FDD
:100C1000022E220F220F200D250FF4CF0EF4219566
:100C200089919991533619F3533729F1533559F175
:100C3000BC0188279927E8945C3621F48991999121
:100C400068945591543639F446EF7EF077FF0DC025
:100C50008FEF9FEF0AC055374AE039F0583540E131
:100C600021F0523642E009F00895FF93EF937DDFC3
:100C7000EF91FF91B7CFFF93EF93FC01819180300B
:100C8000B9F360DFFBCFFF93EF9368DFF1CFDF9322
:100C9000CF93CDB7DEB72596A3DFCF91DF9108952F
:100CA00081E0089581E008950C94520608950C9413
:100CB00056061F93CF93DF9300D000D01F92CDB77D
:100CC000DEB749835A836B832091340289819A81EC
:100CD000211112C0662349F00E945826182F682F50
:100CE00089819A810E94FF2503C00E942B26182F1C
:100CF00069817A81812F04C00E94582669817A8196
:100D00000F900F900F900F900F90DF91CF911F9148
:100D10000C943507FC01408151816281738184818B
:100D20000C945906CF93DF93EC010E948A06BE0112
:100D3000DF91CF910C9457060E94A127811102C028
:100D40000E944A280E94AF160E94F7160C94900940
:100D50000E9458170C948C0908950C94AC0681E0FD
:100D600008950C94AF06CF93C82F0E94AD068C2F28
:100D70000E94B106CF91089508950E94F4200E9428
:100D8000BC062FEF84E39CE0215080409040E1F7C7
:100D900000C000000C9488290F931F93CF93DF931A
:100DA000EC010E948A068C01BE010E945406882331
:100DB00009F450C0BE01C8010E941816882309F426
:100DC00049C0BE01C8010E947018882309F442C0BE
:100DD000BE01C8010E94B1188823E1F1BE01C8011B
:100DE0000E94DC198823B1F1BE01C8010E94591488
:100DF000882381F18A81882331F101308CE518073D
:100E000051F00E3D8CE51807D9F001151C45D9F4B9
:100E10000E94BD061FC08091AA02C82FC095C17054
:100E2000C0FB80F98093AA02CC2329F086E193E0ED
:100E30000E94AE050FC084E093E00E94AE050BC097
:100E40000E944A2807C0CE01DF91CF911F910F91D8
:100E50000C945006C0E08C2FDF91CF911F910F9121
:100E6000089580E090E0089508952CE3829FC001EA
:100E70001124FC0126E0729FE00DF11D1124E60F04
:100E8000F11DEE0FFF1FEC5DFE4F859194910895CB
:100E9000880F991FFC01E95DFC4F8591949108959D
:100EA000CF93DF930E9435070E946208EC01811501
:100EB000904508F043C0C11580E4D80708F0CBC0C6
:100EC000C03ED10528F5C03CD10508F0B3C0C83AF2
:100ED000D10578F4C53AD10508F0A4C0C130D105D8
:100EE00009F4ECC008F4E8C0C430D10508F0E6C04D
:100EF000E3C0CF3BD10508F0DFC0C85AD0E0CC0F2B
:100F0000DD1FCA5BDE4F0990D881C02DD464D6C0E6
:100F1000C11590E2D90750F4C11521E0D20708F0BD
:100F2000CDC0C83ED10508F4C9C0C6C0C11580E314
:100F3000D80708F086C0CE019F707FC0C11595E527
:100F4000D90708F043C0C11524E5D20708F09AC0BC
:100F5000C11582E5D80708F5C11591E5D90708F054
:100F60007DC0CE0174E0969587957A95E1F7837000
:100F70009C2F937021E030E002C0220F331F9A951E
:100F8000E2F73C68382BCF70C695C69580E2C89FC3
:100F9000E0011124C22BD32B91C09E012370332773
:100FA0008C2F86958695C115D34508F05CC0C1E0AD
:100FB000D0E002C0CC0FDD1F2A95E2F720E2829F2D
:100FC000C0011124C82BD92BDC6878C0C11529E5D4
:100FD000D207A0F4C11588E5D80708F058C0C1159C
:100FE00096E5D90708F068C08C2F0E94F6088F712B
:100FF000C82FD0E0DC2FCC27D06260C0C1152AE515
:10100000D20708F449C0CE0190568115904208F0ED
:1010100053C08D2F8F710E94F608DD27D0628F712B
:10102000D82B4CC0C55AD0E0CC58DE4FC881D0E098
:10103000D06444C0CE01805C91090E944807EC0155
:101040003DC0CE019927D3FF03C0EC01D86C36C058
:10105000EC01D06C33C0DF70D06A30C0DC2FCC27FD
:10106000C16FD06A2BC0C1E0D0E002C0CC0FDD1F41
:101070002A95E2F720E2829FC0011124C82BD92BC8
:10108000DA681CC0DC2FCC27C46FD06A17C0DC2FF5
:10109000CC27C06FD06A12C08C2F8F700E94F608C8
:1010A00094E0D695C7959A95E1F7CF70D0E0DC2F04
:1010B000CC27D069C82B02C0C0E0D0E0CE01DF91C0
:1010C000CF9108958238910569F1B0F4813391058B
:1010D00009F46DC048F48932910509F463C08A327D
:1010E000910509F469C008958533910509F455C047
:1010F00089339105B9F00895833E910569F138F47B
:10110000803E9105B1F0823E910509F10895863E39
:101110009105A9F1873E9105B9F1843E910509F049
:1011200064C023C02091FE0220FD4FC021FD4DC0B0
:1011300008958091FE0280FD44C08091FF0280FFEF
:1011400044C08091FE0284FD42C083EE4DC0809178
:10115000FE0282FF38C0F5CF8091FE0282FD33C0CF
:101160008091FF0280FD31C0ECCF8091FF0281FFB2
:1011700032C08091FE0284FD2AC087EE35C0809186
:10118000FE0283FF26C0F5CF8091FE0283FD21C0C1
:101190008091FF0281FD1FC0ECCF8091FE0285FD92
:1011A0001CC01DC08091FE0285FD19C016C0809133
:1011B000FE0286FD16C017C08091FE0286FD13C098
:1011C00010C089E311C082EE0FC080EE0DC080E038
:1011D0000BC086EE09C084EE07C089E205C085E336
:1011E00003C08AE201C081E390E008959091FE027D
:1011F00092FF0DC0282F2871283019F4877F846052
:1012000006C0282F2471243011F48B7F886093FF4F
:101210000DC0282F2871283119F4877E846106C0FB
:10122000282F2471243111F48B7E88612091FF02D4
:1012300020FF0DC0382F3871383019F4877F816056
:1012400006C0382F3171313011F48E7F886021FF54
:101250000DC0282F2871283119F4877E816106C0BE
:10126000282F2171213111F48E7E886194FD877EB3
:101270000895E82FF0E0EC53FD4F80810895CF9260
:10128000DF92EF92FF920F931F93CF93DF9386E34A
:1012900093E00E94AE0584ECE82E82E0F82EC0E0D8
:1012A000D0E091E3C92E93E0D92E09E213E0DF9359
:1012B000CF93DF92CF920E9447068EE293E00E9486
:1012C000AE05F70181917F010E948F271F928F93B6
:1012D0001F930F930E94470687E293E00E94AE059A
:1012E00021968DB79EB708960FB6F8949EBF0FBE95
:1012F0008DBFCA30D105D9F6DF91CF911F910F91E3
:10130000FF90EF90DF90CF90089580EA8A95F1F7F3
:10131000089508950C9489090C948A090C948909FC
:101320000C948E0908950F931F93CF93DF93CDB73D
:10133000DEB760970FB6F894DEBF0FBECDBF0E9438
:10134000700B8091100181112DC0FE0131968AE051
:10135000DF011D928A95E9F781E3898382E38A831D
:1013600082E98B8381EF8C8384EF8D83A6E0B1E0EB
:10137000CE010B9621912D938E179F07D9F726E06A
:10138000E0E4F1E0DE011B9601900D922A95E1F771
:10139000FC01A0E0B1E0CE01419621912D938E1782
:1013A0009F07D9F780911001811102C095E001C01B
:1013B00090E09093CF0285E0891B8093CE02A6E057
:1013C000B1E04BE051E061E070E08D91E82FE295F3
:1013D000EF70F0E021A18F708B0102C0000F111F90
:1013E0008A95E2F7C801902F9095922391A392A13C
:1013F000892B82A34A175B0741F7A0E0B1E046E0E2
:1014000051E061E070E08D91E82FE295EF70F0E03F
:1014100021A18F708B0102C0000F111F8A95E2F786
:10142000C801902F9095922391A392A1892B82A31A
:101430004A175B0741F7EAEBF2E0A4ECB2E084EC78
:1014400092E011921D928E179F07D9F785E00E94B6
:10145000150B0E949C0660960FB6F894DEBF0FBE77
:10146000CDBFDF91CF911F910F910C94840B0E94FF
:10147000530B882309F18091CE0290E08C539D4F4D
:101480000E94B40B811114C08091EE018F5F809394
:10149000EE01863078F0E091CE02F0E0EC53FD4FA3
:1014A00080E090E01192019685309105D9F702C055
:1014B0001092EE010C94A8068091CF0290E08C531C
:1014C0009D4F0E94E10B0E9458170C9492098F9235
:1014D0009F92AF92BF92CF92DF92EF92FF920F93C3
:1014E0001F93CF93DF9306E011E0CAEBD2E08FEBBE
:1014F000E82E82E0F82E912CAA24A394B12C6E0140
:1015000088801882F8018081E82FE295EF70F0E082
:1015100021A18F70A50102C0440F551F8A95E2F7E3
:10152000CA01822B81A3F8018081E82FE295EF7038
:10153000F0E092A18F70950101C0220F8A95EAF721
:10154000822F8095892382A30E948509E0E0F1E043
:1015500020E030E09191A92FA295AF70B0E0909675
:101560004C91688150E09F7002C0559547959A95BF
:10157000E2F740FD08C09A2D022E01C0990F0A948F
:10158000EAF7892F01C080E0862B88832F5F3F4FC9
:1015900026303105F9F6F8018081E82FE295EF70E9
:1015A000F0E091A18F70950101C0220F8A95EAF7B2
:1015B000822F8095892381A3F80181918F01E82FE3
:1015C000E295EF70F0E022A18F70A50102C0440FF8
:1015D000551F8A95E2F7CA01822B82A3219681E0EA
:1015E000F6019081981101C080E0982AEC16FD0662
:1015F00009F085CF6091CF0270E06C537D4F292DAB
:1016000045E08AEB92E00E94160B0E94370A892D72
:10161000DF91CF911F910F91FF90EF90DF90CF90CE
:10162000BF90AF909F908F9008950895FF920F9371
:101630001F93CF93DF938C01F62ED72FC42F222335
:1016400049F081E08093F1010E942C299093F001F0
:101650008093EF018091F1018823C1F08091EF0127
:101660009091F0010E943829069780F0EF2DFD2F10
:10167000D8014C2F50E0CD01801B910B84179507AA
:101680001CF48D918193F7CF1092F101DF91CF91EE
:101690001F910F91FF90089555985D9889B185FB32
:1016A000882780F908958091F201811112C08091FC
:1016B000D80080618093D8008AE18A95F1F700C054
:1016C0008091D90080FD02C082E001C081E080935A
:1016D000F20181E09091F201913009F080E00895EB
:1016E0000E944C0B809310018091100166E08823CA
:1016F00011F080E001C086E00E948A0C0E94530B2A
:1017000081110C948B0B08950E94530B811102C020
:101710000C94910B089562E070E081E191E00C94EB
:101720006B1A62E070E081E191E00C94741A0E94FF
:101730006411882361F08CEF91E00E946A1181E0CE
:1017400090E00E944D1B892B11F40C9467110895B1
:101750008091FB01883039F460E08CEF91E00E94C9
:1017600039131092FB010895CF93DF93D82FC92F1F
:101770000E94970B80E090E00E944D1B892BE9F4BA
:10178000ED2FFC2F80E090E0DC01AB50BE4F2C91A0
:101790002193019685309105B9F70E94C8148823DA
:1017A00019F00E94CC1401C080E08093F4018AEF0C
:1017B00091E00E94C91781E001C080E0DF91CF91E4
:1017C0000895CF93DF93D82FC92F0E94A80BED2F38
:1017D000FC2F80E090E02191DC01AB50BE4F2C93B8
:1017E000019685309105B9F78091F4010E944D165C
:1017F0008AEF91E0DF91CF910C94C017EF92FF92A6
:101800000F931F93CF93DF93F62E472FE82FF0E02F
:10181000711106C0E45EF74F6491762F862F72C077
:10182000272F30E0E45EF74FE4910E2F10E056E0F2
:10183000659FC0011124CFEFD0E0BE010E9470313E
:101840005BEA5603C001579F900D11248F0D911D27
:101850008F0D911D982F990F890F7E01E21AF30ABF
:10186000E09ED001E19EB00DF09EB00D1124489F86
:10187000A0011124452F55277E01E41AF50AE09EA8
:10188000A001E19E500DF09E500D11247E01E81A3A
:10189000F108E29EC001E39E900DF29E900D11248E
:1018A000892F9927C81BD90BC09FC001C19F900DDC
:1018B000D09F900D11246230710591F048F46115AC
:1018C0007105E1F061307105A9F48B2F752F19C0F6
:1018D0006430710561F038F06630710579F00AC046
:1018E000892F7B2F0EC08E2F7B2FE52F0AC08E2FC6
:1018F000792F02C0852F7E2FEB2F03C08B2F7E2FD9
:10190000E92F6E2FDF91CF911F910F91FF90EF90F4
:101910000895089580930B02609325010895CF9355
:10192000DF93762FE901682F842F0E94FE0B7983C5
:1019300068838A83DF91CF9108958091D002282F08
:10194000269530E02115310519F48170826005C0BB
:101950002532310524F0817088648093D002089587
:1019600088E090E00C94EF31CF92DF92EF92FF92FB
:101970006B017C010E949D0CB701A60188E090E0FC
:10198000FF90EF90DF90CF900C940D32E0EDF2E0FD
:1019900083E0808311828FEF828383831482A3E1AB
:1019A000B2E012968C911297836012968C936081AC
:1019B0007181828193810C94B40C8091AA0280FF82
:1019C00008C08DE696E09F938F930E9447060F9084
:1019D0000F908091AA0280FF0FC08091D002817089
:1019E0001F928F9380E596E09F938F930E94470606
:1019F0000F900F900F900F908091AA0280FF0FC060
:101A00008091D00286951F928F9385E396E09F93F5
:101A10008F930E9447060F900F900F900F90809128
:101A2000AA0280FF0EC08091D1021F928F938BE19A
:101A300096E09F938F930E9447060F900F900F9010
:101A40000F908091AA0280FF0EC08091D2021F9257
:101A50008F9381E096E09F938F930E9447060F90AB
:101A60000F900F900F908091AA0280FF0EC080917E
:101A7000D3021F928F9387EE95E09F938F930E94DE
:101A800047060F900F900F900F908091AA0280FF51
:101A90000EC08091D4021F928F938BEC95E09F93A0
:101AA0008F930E9447060F900F900F900F9008950C
:101AB0008091D00280FF02C08695089580E008954D
:101AC0008091D402833018F48F5F8093D4026091A8
:101AD000D0027091D1028091D2029091D3020C94E5
:101AE000B40C8091D402882319F081508093D402E1
:101AF0006091D0027091D1028091D2029091D30274
:101B00000C94B40C6091250170E08091D00280FFAC
:101B10000AC080910B0223E0829FC00111248B52E6
:101B20009D4F0C94F11680910A029091240189171F
:101B300080F7E82FF0E09F01220F331FE20FF31F21
:101B4000EB52FD4F1182108212828F5FF0CF909185
:101B5000D00290FF16C090910A02209124019217A2
:101B600070F4E92FF0E0DF01AA0FBB1FEA0FFB1FA3
:101B7000EB52FD4F8183608342839F5FF0CF0C94D3
:101B8000820D0895CF93DF9300D01F92CDB7DEB7BB
:101B90009091D00290FF0AC09E012F5F3F4F0E949C
:101BA0008F0C4B8169818A810E94A70D0F900F9045
:101BB0000F90DF91CF910895CF93DF93EC01EC81EB
:101BC000F0E0E856F94F4491E0EDF2E06281818166
:101BD0000E94C20D8C818F5F8C83DF91CF9108951D
:101BE000CF93DF93EC01E0EDF2E0438162818C81E1
:101BF0000E94C20D8C818F5F8C83DF91CF910895FD
:101C00000F931F93CF93DF9300D01F92CDB7DEB712
:101C10008C018091040281110AC09E012F5F3F4F09
:101C20004FEF6FEF0E948F0C8A8180930402F801BE
:101C30008481813051F028F0823061F440910402B7
:101C40000AC08091040240E007C06091040240E0B5
:101C500080E003C040E080E060E00E94A70DF80152
:101C6000848190E0019663E070E00E948431848377
:101C70000F900F900F90DF91CF911F910F910895CA
:101C80004F925F926F927F928F929F92AF92BF928C
:101C9000CF92DF92EF92FF920F931F93CF93DF9338
:101CA00000D01F92CDB7DEB7F82ED62EE42E622ECE
:101CB0009091D00290FFC5C0E92FE695AE2FB0E01D
:101CC000A958BE4F8C91809313029E7F923061F48D
:101CD0009E012F5F3F4F8F2D0E948F0C4B8169819A
:101CE0008A810E94A70D62C0823019F4E090D3026D
:101CF0005DC0863019F4F090D10258C08930D9F314
:101D0000893109F053C0E9518E2F8170782E81E01E
:101D1000C72CC826E695F0E0E856F84FA590B49099
:101D2000412CBB249CEE892E93E0992E60912301D7
:101D30004616D0F5042D10E00A9DC0010B9D900DB4
:101D40001A9D900D112470E00E9470315F2C71106B
:101D500002C0560E01C0561A8091AA0280FF11C01F
:101D6000BF92AF921F92CF921F925F921F924F929B
:101D70009F928F920E9447060FB6F894DEBF0FBE67
:101D8000CDBF80910A02080F111D9801220F331F49
:101D9000020F131F98012B523D4F4E2D6D2D852D97
:101DA0000E948F0C4394C2CF0E94820D8091D10279
:101DB000F81208C08091D202D81204C08091D302D8
:101DC000E81629F080911502826080931502F09246
:101DD000D102D092D202E092D3026620E9F0609163
:101DE000D0027091D1028091D2029091D3020E94D0
:101DF000B40C8091AA0280FF24C08091D3021F926C
:101E00008F938091D2021F928F938091D1021F9263
:101E10008F9387EC93E00CC08091AA0280FF11C0E1
:101E20001F92EF921F92DF921F92FF9280EA93E03F
:101E30009F938F930E9447060FB6F894DEBF0FBEA4
:101E4000CDBF0F900F900F90DF91CF911F910F9109
:101E5000FF90EF90DF90CF90BF90AF909F908F90CA
:101E60007F906F905F904F900895E0EDF2E0918148
:101E7000282F4381628188E0890F0C94400E81E015
:101E80000C94350FE0EDF2E09181282F43816281BF
:101E900088EF890F0C94400E81E00C94420FE0ED26
:101EA000F2E0628121E1620F08F46FEF282F438195
:101EB00081810C94400E81E00C944F0FE0EDF2E034
:101EC000628121E1621B08F460E0282F4381818157
:101ED0000C94400E81E00C945E0FE0EDF2E0438143
:101EE00021E1420F08F44FEF282F628181810C9489
:101EF000400E81E00C946D0FE0EDF2E0438121E1B2
:101F0000421B08F440E0282F628181810C94400E2E
:101F100081E00C947C0F20E00C94400EFF920F9314
:101F20001F93CF93DF93EC01F12C0FEF10E0609142
:101F30002301F616F0F480910A022F2D30E0280FCD
:101F4000311DC901880F991F280F391F2B523D4F92
:101F500070E0C8010E948431962F8C814091D30299
:101F60006091D202F99E800D11240E948F0CF3948F
:101F7000DECF0E94820D9A818C8190FF02C08F5F1C
:101F800001C081508C83DF91CF911F910F91FF9001
:101F900008958F929F92AF92BF92CF92DF92EF926D
:101FA000FF920F931F93CF93DF93EC018A8180FF01
:101FB00003C0BB24BA9402C0BB24B3948C818111AA
:101FC0000DC081E0B81206C080912301815080933A
:101FD000060202C01092060281E08C83A12C4CE024
:101FE000942E80912301A81608F044C080910A0223
:101FF000CA2CD12C8601080F111DC801880F991F0A
:10200000080F191F0B521D4FF80111821082128206
:1020100034E0E32EF12C812C80910602880D8D3066
:102020002CF0692D0E946231892F05C087FF03C003
:1020300090912301890F082E000C990BC816D90620
:1020400091F48091D3028E9DA0018F9D500D11249B
:10205000559547955595479598016091D202809185
:10206000D1020E948F0C8B0CF1E0EF1AF108A1F65F
:10207000A394B7CF0E94820D8091060291E0B9121D
:102080000EC0811107C08091230181508093060208
:102090001C820FC0815080930602BC820AC090E06F
:1020A00001966091230170E00E94843180930602C2
:1020B0008C83DF91CF911F910F91FF90EF90DF9074
:1020C000CF90BF90AF909F908F9008951F93CF9324
:1020D000DF93EC018C81811109C081E08C83109227
:1020E000050292E0909322018093210180910A02DF
:1020F00090912401891770F4E82FF0E09F01220FDE
:10210000331FE20FF31FEB52FD4F11821082128238
:102110008F5FF0CF10E0609123011617C0F5E12F1B
:10212000F0E070E0CF010E94843120910A02820F1A
:1021300020910502022E000C330B90E0E217F3070A
:10214000CCF020912201022E000C330B2E173F07FA
:102150008CF09C01220F331F820F931F9C012B5286
:102160003D4F4091D3026091D2028091D1020E94F2
:102170008F0C0BC0FC01EE0FFF1F8E0F9F1FFC0189
:10218000EB52FD4F1182108212821F5FC4CF0E945A
:10219000820D8091210120910502280F20930502D4
:1021A00090912201980F9093220119165CF4022E4F
:1021B000000C330B4091230150E04150510924178A
:1021C000350734F0819580932101813009F41C8218
:1021D000DF91CF911F9108950F931F93CF93DF93BA
:1021E0008C01FC01848195810196817099279583EA
:1021F0008483C0E0D5E580912301C81700F5809164
:102200000A022C2F30E0280F311DC901880F991FB9
:10221000280F391F2B523D4F4C2F4695F8018481D2
:102220009581840F911D81704091D3026091D202FB
:102230008D9F802D11240E948F0CCF5FDCCFDF910A
:10224000CF911F910F910C94820D0F931F93CF93F9
:10225000DF93EC0100E010E080912301282F30E0B3
:102260000217130724F590910A029801290F311DD6
:10227000A901440F551F240F351F2B523D4F869542
:1022800090E04C81081719071CF4442331F002C078
:10229000411103C04091D30201C040E06091D202DD
:1022A0008091D1020E948F0C0F5F1F4FD5CF0E94EB
:1022B000820D8C8190E00196817099278C83DF914B
:1022C000CF911F910F91089580911502089510925A
:1022D0001502089525E0E0EDF2E0DC0101900D9299
:1022E0002A95E1F7209113023091140240911502D2
:1022F000FC012583368347830895E3E1F2E01182F0
:1023000082818460828308956091D002669570E036
:102310004BE050E086E291E00E94DA31892B19F41B
:1023200081E0809314020E942C2990930D028093E7
:102330000C02809115028460809315028091AA029C
:1023400080FF08C087E893E09F938F930E94470621
:102350000F900F90089510921402809115028460DE
:10236000809315028091AA0280FF08C08EE693E058
:102370009F938F930E9447060F900F90089590911E
:10238000D00290FF59C09170811102C0926006C0C6
:10239000853210F0986402C0880F982B9093D00279
:1023A000809115028160809315026623B1F06091DF
:1023B000D0027091D1028091D2029091D3020E94FA
:1023C000B40C8091AA0280FF1BC08091D002869538
:1023D0001F928F9381E195E00BC08091AA0280FF4C
:1023E0000FC08091D00286951F928F9383EF94E067
:1023F0009F938F930E9447060F900F900F900F901E
:102400006091D002669570E04BE050E086E291E08A
:102410000E94DA31892B19F00E94AB1102C00E9490
:10242000841181E080930F024091D3026091D20227
:102430008091D1020C948B0F0895682F9091D00257
:10244000969581E0890F853208F081E00C94BF11E8
:1024500081E00C941D12682F9091D00296958FEF19
:10246000890F09F484E20C94BF1181E00C942B12C3
:1024700061E00C94BF118091D00281608093D00202
:102480008091AA0280FF0DC01F9281E08F9385E8A2
:1024900094E09F938F930E9447060F900F900F90A8
:1024A0000F908091D00286950C94381260E00C94C5
:1024B000BF1180911202811165C08091AA0280FF34
:1024C00008C084EB95E09F938F930E9447060F907E
:1024D0000F908091AA0280FF08C08EE995E09F933B
:1024E0008F930E9447060F900F900E94A1278111A1
:1024F00010C08091AA0280FF08C086E795E09F93F4
:102500008F930E9447060F900F900E944A280E94C6
:10251000C60C0E94B00C6093D0027093D1028093DD
:10252000D2029093D30280911502836080931502AA
:102530006E7FC1F48091AA0280FF08C08DE295E011
:102540009F938F930E9447060F900F900E94C60C96
:102550000E94B00C6093D0027093D1028093D2029B
:102560009093D3020E949D0C0E94DD0C0E947D116D
:102570008091D00280FF03C086950E94561281E0B0
:102580008093120208958091D0028E7F8093D002B2
:102590006091D0027091D1028091D2029091D302C9
:1025A0000E94B40C8091AA0280FF0FC08091D002DB
:1025B00081701F928F938DE494E09F938F930E947C
:1025C00047060F900F900F900F900E94AB118091D3
:1025D00015028160809315022FEF80E792E0215071
:1025E00080409040E1F700C000000C94820D809183
:1025F000AA0280FF10C08091D002809581701F9246
:102600008F938CEB94E09F938F930E9447060F90DB
:102610000F900F900F908091D00280FD0C94C31208
:102620000C943B128091D0028E7F8093D0028091D7
:10263000AA0280FF0CC01F921F9283E194E09F9337
:102640008F930E9447060F900F900F900F900E945B
:10265000AB11809115028160809315022FEF80E706
:1026600092E0215080409040E1F700C000000C94BF
:10267000820D1F93CF93DF93EC01162F8F8180FF84
:102680000FC0888180FF0AC08091D0028160809352
:10269000D002888186950E94BF1102C00E94121349
:1026A0008F8181FF06C0212F4B816A8189810E9421
:1026B000400E8F8182FF08C08E81882319F00E940E
:1026C000841102C00E94AB118F8183FF03C081E09F
:1026D00080930F02DF91CF911F910895EF92FF92A7
:1026E0000F931F93CF93DF9380911402882309F4F3
:1026F000BEC080911302E091D002E695E81BE09302
:102700000E02823049F4F0E0EC56F94FE491CE2FFE
:10271000D0E00CED1DE049C0863049F4F0E0EF5602
:10272000F94FE491CE2FD0E000EF1DE03EC089309C
:1027300051F4E695F0E0E257F94FE491CE2FD0E066
:102740000EE81FE032C08F3051F4E695F0E0E55717
:10275000F94FE491CE2FD0E009EC1FE026C085317F
:1027600049F4F0E0E857F94FE491CE2FD0E006E6C7
:1027700010E11BC0883181F0833239F4E6E8F6E0DD
:10278000C591D49100E01EE010C0843251F4C4EF32
:10279000D1E005E211E109C0C8EED3E00CEE10E192
:1027A00004C0C0EDD7E009E81CE080910F02882347
:1027B00089F010920F020E942C299E0120953095DD
:1027C000820F931F90930D0280930C0210921102BE
:1027D0001092100280910C0290910D020E943829F3
:1027E0008C179D0708F443C080910902882311F1DA
:1027F0001092090280910702909108020E943829E4
:1028000080339547B8F00E942C299093080280935A
:1028100007028091AA0280FF08C085E493E09F939D
:102820008F930E9447060F900F9080911502886049
:1028300080931502E0901002F0901102E0910C02DA
:10284000F0910D02CE0FDF1FD0930D02C0930C024A
:102850008CE092E0F80109958091100290911102AC
:10286000892B29F4EF2819F081E080930902DF9188
:10287000CF911F910F91FF90EF900895882311F051
:10288000FA0101C0FB010994CF93DF93C82FD62F23
:102890000E94580D8C1740F00E94580D8D1720F49F
:1028A000DF91CF910C9428128C2FDF91CF910C9453
:1028B00038121F93CF93DF93FB011281111163C074
:1028C000EC010E94D9268272FE01E25CFC45E431F3
:1028D000F10508F057C0EA5AFF4F0C94BA310E9434
:1028E000F71251C045E352E168E272E104C048E2E8
:1028F00052E165E372E10E943E1445C04CE45FE0A2
:102900006FE37FE0F8CF4FE35FE06CE47FE0F3CF6D
:102910004AE65FE06BE57FE0EECF4BE55FE06AE61D
:102920007FE0E9CF48E85FE069E77FE0E4CF49E78F
:102930005FE068E87FE0DFCF41E75DE060E67DE0F3
:10294000DACF40E65DE061E77DE0D5CF81E017C0FA
:1029500065E082E010C068E086E00DC06EE089E0CE
:102960000AC064E18FE007C067E185E104C088E147
:1029700006C062E289E10E94441405C083E20E941D
:10298000381201C011E0812FDF91CF911F9108957E
:102990008091F902817008958091F902869586955B
:1029A000869508950E94A127811102C00E944A289D
:1029B0000E94D2278093F902282F269526952695E6
:1029C00030E02630310524F0877088628093F90268
:1029D0008091F90280FF04C086958695869501C096
:1029E00080E00C944D162091F902822F86958695F1
:1029F0008695482F50E04530510554F48F5F982F4D
:102A0000990F990F990F822F8770892B8093F90264
:102A10008091F90281608093F9020E94D62780910B
:102A2000AA0280FF11C08091F9028695869586954D
:102A30001F928F9384E098E09F938F930E944706A4
:102A40000F900F900F900F908091F90286958695C8
:102A500086950C944D168091F902982F969596952F
:102A60009695A1F0915E990F990F990F8770892B18
:102A70008093F902887F91E009F490E08091F90257
:102A800090FB80F98093F9020E94D6278091AA02D8
:102A900080FF11C08091F9028695869586951F92D8
:102AA0008F938CEE97E09F938F930E9447060F9031
:102AB0000F900F900F908091F902869586958695DC
:102AC0000C944D168091F90280FD1FC081608093A7
:102AD000F902813019F489E08093F9028091F902BA
:102AE0000E94D6278091AA0280FF08C084EC97E05C
:102AF0009F938F930E9447060F900F908091F90249
:102B00008695869586950C944D1608958091F902C8
:102B100080FF14C08E7F8093F9020E94D627809197
:102B2000AA0280FF08C081EB97E09F938F930E94D9
:102B300047060F900F9080E00C944D160895CF93A8
:102B4000C091F902C1708091AA0280FF0CC01F924F
:102B5000CF9386ED97E09F938F930E9447060F9047
:102B60000F900F900F90CC2319F0CF910C948615F5
:102B7000CF910C9462159091F902892F86958695D4
:102B800086958F5F8F719770863038F4880F880F25
:102B9000880F892B8093F90202C09093F9028091EB
:102BA000F902887F91E009F490E08091F90290FBAE
:102BB00080F98093F9020E94D6278091AA0280FFB3
:102BC00011C08091F9028695869586951F928F9304
:102BD0008DE997E09F938F930E9447060F900F9087
:102BE0000F900F908091F9028695869586950C94AA
:102BF0004D16863008F085E09091F9029770282FE5
:102C0000220F220F220F922B9093F902987F21E03E
:102C100009F420E09091F90220FB90F99093F902D9
:102C20000C944D160E94F9158091F9020C94D62748
:102C30009C01FB018281882349F12D3BFCE53F0784
:102C4000C9F040F42B3BECE53E0769F02C3B3C45DA
:102C500061F008952F3B9CE5390791F070F0203C1E
:102C60003C4589F0089585E001C080E00E9412167D
:102C700080E008950E942B15FBCF0E94F314F8CF3B
:102C80000E949F15F5CF0E94BB15F2CF81E00895F9
:102C9000259A2D9808952D980895CF92DF92EF925E
:102CA000FF92CF93C82F863050F4811109C08091D4
:102CB00080008F77809380000E944B1606C0C5E08D
:102CC000809180008068809380002C2F30E0AFEFEF
:102CD000BFEF0E94C03125E030E040E050E00E94AC
:102CE0009831C9012C3764E1360728F469E070E0B7
:102CF0000E94703129C0DA01C9018A50974DAF4F47
:102D0000BF4F6627782F892F9A2F25EF38E241E0B1
:102D100050E00E94983169017A01CA01B9010E940C
:102D200046319B01AC01C701B6010E944631BB2769
:102D3000A92F982F872F009721E0A207B10511F046
:102D4000BC0102C06FEF7FEF709389006093880031
:102D5000CF91FF90EF90DF90CF90089508950E945B
:102D6000481682E88093800089E1809381008FEF8C
:102D70009FEF90938700809386000C94D2142BB120
:102D8000342F309523233BB1432B3FB7F894FC01FC
:102D9000680F791FE617F70789F0819198E04BB922
:102DA000000000C087FF2BB9880F000000C000C0E2
:102DB00000C02BB900C09A9591F7ECCF3FBF0895A2
:102DC0002AB1242B2AB99B01220F331F620F731FD4
:102DD0000E94BF1687EC90E00197F1F700C0000059
:102DE000089540E40C94E01608950C94F416809134
:102DF0001001882309F447C020913201A22FA29527
:102E0000AF70B0E091963C9191972F7081E090E087
:102E1000AC01022E01C0440F0A94EAF7542F5095DA
:102E2000352391963C93919792963C919297432BA0
:102E300092964C93929740913101E42FE295EF7076
:102E4000F0E031A14F70042E01C0880F0A94EAF718
:102E5000982F9095932391A392A1892B82A390966A
:102E60008C9190E002C0959587952A95E2F7817044
:102E700020A130E002C0359527954A95E2F720FD64
:102E800009C090E008C087EF8093320186EF8093FD
:102E90003101B2CF92E0892B80931B0290911001F7
:102EA00081E0982790931702891B8093160208955A
:102EB000CF93E0911B025E2F550F550F20913201E9
:102EC000E22FE295EF70F0E080A190E02F7002C059
:102ED000959587952A95E2F7817099274091310160
:102EE000E42FE295EF70F0E020A130E04F7002C0D7
:102EF000359527954A95E2F7F901E170FF2720FF04
:102F000002C0E2E0F0E0E82BF92BE52BE0931B0296
:102F1000C0911702EF70F0E0E456FE4F908180916F
:102F20001A02890F80931A0284306CF0EC2F0C2E59
:102F3000000CFF0BE85EFD4F80818F5F808360E0B7
:102F40008C2F0E94F51680911A028D3F6CF4EC2FA5
:102F50000C2E000CFF0BE85EFD4F808181508083BA
:102F600061E08C2F0E94F51680911A02837887FF0A
:102F700003C081508C6F8F5F80931A02CF910895A8
:102F8000E0911702F0E0E85EFD4F2081FC01208314
:102F90000895FF920F931F93CF93DF93D091160262
:102FA0000D2F10E0085E1D4FFC01C081F8018081EB
:102FB000C81BFC2E1F1454F4FA94F80180818F5F13
:102FC000808360E08D2F0E94F516F4CF8C2FC7FD13
:102FD00080E0C81BCC2351F0CF5FF8018081815085
:102FE000808361E08D2F0E94F516F4CFDF91CF91A1
:102FF0001F910F91FF9008950F931F93CF93DF932D
:10300000C62FD42F122FFC0182818823C9F0609330
:103010001E020E942C2990931D0280931C0280E2C4
:103020008C0F883008F057C0C77081E001C0880F4E
:10303000CA95EAF7DF91CF911F910F910C94821EF0
:1030400080911E02681330C080911C0290911D0275
:103050000E943829883C910538F500E20D0FCD1704
:10306000B9F080E28C0F883040F4C77081E001C075
:10307000880FCA95EAF70E94891E083028F581E07A
:103080009D2F977001C0880F9A95EAF70E94821EC3
:10309000812F0E946F1E0830F0F4D77081E001C0CC
:1030A000880FDA95EAF70AC080E28C0F883098F42E
:1030B000C77081E001C0880FCA95EAF7DF91CF9110
:1030C0001F910F910C94891E812FDF91CF911F9139
:1030D0000F910C946F1EDF91CF911F910F91089566
:1030E0009C01CB01233F4CE53407F9F078F4283DEF
:1030F000FCE53F07B9F0293D4CE5340711F1273DC8
:103100003C4531F526E241EE61EE1EC0253FFCE56F
:103110003F0799F070F0263F3C45D1F427E245EE99
:1031200066EE12C027E245EE0EC026E241EE60EEEA
:103130000BC027E245EE64EE07C026E241EE62EEE8
:1031400003C028E241E065EE0E94FC1780E008958C
:10315000FC018281882319F010921E02089581E0FB
:103160000895CF93DF93EC01FB018281882309F45A
:103170001FC1C230FCE5DF0708F41BC1C6319CE566
:10318000D90738F09E012A5F3C452930310508F007
:1031900010C10E94B4279093FF028093FE02C031B9
:1031A000ECE5DE0709F4C3C008F041C0C8308CE587
:1031B000D80709F49AC0F0F4C430ECE5DE0709F44E
:1031C00087C068F4C2308CE5D80709F477C0C330F3
:1031D000DC4509F0E3C08091FE02826076C0C63013
:1031E000ECE5DE0709F46EC008F07BC08091FE02BA
:1031F00088606BC0CC308CE5D80709F485C068F4D2
:10320000CA30ECE5DE0709F474C008F079C00E940A
:10321000F4208091FE02806858C0CE308CE5D8073B
:1032200009F476C008F07FC08091FE028BC0CB3FCE
:10323000ECE5DE0709F44FC018F5C3318CE5D8077B
:1032400009F47DC078F4C131ECE5DE0709F473C000
:10325000C231DC4509F0A2C00E94F4208091FE0238
:103260008F7733C0C5318CE5D80709F472C008F4F4
:1032700086C0CA3FDC4509F091C08091FF023EC084
:10328000CF3FFCE5DF0709F45FC058F4CD3F9CE574
:10329000D90709F444C008F43FC08091FF0282605E
:1032A0002DC0C130FDE5DF0709F475C008F45DC02D
:1032B000C230DD4509F072C080E06EC08091FE0230
:1032C000816003C08091FE0280618093FE0266C02F
:1032D0008091FE0211C08091FF0282608093FF0204
:1032E0005DC08091FE028062F0CF8091FE0280641A
:1032F000ECCF8091FE0288608460E7CF8160EECFE2
:103300008091FE028E7FE1CF8091FE028D7FDDCF26
:103310008091FE02877FD9CF8091FF0218C08091F3
:10332000FF028D7FDBCF8091FE028F7ECECF80911A
:10333000FE028F7DCACF8091FE028F7BC6CF809127
:10334000FE02877F8B7FC1CF8091FF028D7F8E7FB2
:10335000C5CF8091FE0282FB222720F991E09227BF
:1033600090FB82F990FB83F9B0CF8091FF02982FF8
:10337000909591708E7F892B90FB81F9AFCF0E9441
:10338000F4208091FE0287FB222720F991E092270A
:1033900090FB87F99ACF81E00E944C288091FE0231
:1033A0009091FF020E94C5270E94F42080E001C096
:1033B00081E0DF91CF910895CF93DF9386319C45D3
:1033C00041F5EB010E94D926982F8A812091330183
:1033D00030913401882379F09A7A81E009F480E011
:1033E00080931F02911102C069E201C065E3C90127
:1033F0000E9493280AC080911F02811102C069E2D5
:1034000001C065E3C9010E9495280E94272780E03A
:1034100001C081E0DF91CF9108958EE1489B02C009
:103420008150E1F7489BFECF0895589880E28A9535
:10343000F1F7589A0895FC012AE02A95F1F790E0F7
:1034400020E080E031E0261779F040E14A95F1F77D
:10345000880F489B02C08160932700C0000040E1B4
:103460004A95F1F72F5FEFCF20E12A95F1F729B1C7
:1034700000C0000030E13A95F1F7217092272081D9
:10348000920F90830895EF92FF920F931F93CF9323
:10349000DF931F92CDB7DEB719828C017C01E60E57
:1034A000F11C0E151F0559F00E940D1A68E0CE019F
:1034B00001960E941B1AF80181938F01F2CF81E0DF
:1034C0009981911180E00F90DF91CF911F910F9121
:1034D000FF90EF90089590932202809321026093D1
:1034E0002002509A589A08959093220280932102C4
:1034F000609320025098589AE89AE9E6F0E08081BB
:103500008C7F80830895615091E001C0990F6A9586
:10351000EAF720E031E0992361F0492F482319F0C0
:10352000589A232701C0589840E24A95F1F796959A
:10353000F2CF222311F0589A01C0589880E28A9560
:10354000F1F758980895FF920F931F93CF93DF934D
:10355000EC018C01060F111DC017D10741F0F99045
:103560000E94151A68E08F2D0E94831AF5CFDF9113
:10357000CF911F910F91FF9008951F920F920FB658
:103580000F9211240F931F932F933F934F935F93A9
:103590006F937F938F939F93AF93BF93EF93FF931B
:1035A000CF93DF931F92CDB7DEB719820E940D1A19
:1035B00067E0CE0101960E941B1A382F369536958A
:1035C0003695932F96959570232F2570920F292F5E
:1035D0002370969596958770920F891348C08981BC
:1035E000811145C080912002831708F440C080E11A
:1035F0008A95F1F7589A509AA2E0AA95F1F700C07F
:103600000091210210912202B8E03B9F000D111D94
:1036100011245898F8016581662321F086819781ED
:103620000E94A31A0E94151AF0E1FA95F1F7589832
:103630005098589A80E18A95F1F7D80112966C91CA
:103640001297662369F013968D919C9114970E94AE
:10365000431AD801ED91FC91811105C082E004C0AC
:10366000D801ED91FC9188E080830E940D1A0F90A3
:10367000DF91CF91FF91EF91BF91AF919F918F918A
:103680007F916F915F914F913F912F911F910F917A
:103690000F900FBE0F901F9018950F931F93CF930D
:1036A000DF932091200230E0281739070CF471C015
:1036B0009C0193E0220F331F9A95E1F7C0912102FC
:1036C000D0912202C20FD31FF894509A589845E027
:1036D0004A95F1F70000982F969595708570890F9F
:1036E000982F937086958695890F8901082B0E94E3
:1036F000151A84E08A95F1F700C067E0802F0E94D8
:10370000831A40E14A95F1F75098589A489902C0B7
:1037100000C0FCCF87E090E0489B0EC0019751F4B9
:10372000509A589AE881F98181E08083789481E009
:1037300090E031C000C0F0CF6D81662381F08E81B2
:103740009F810E94431A81110AC0509A589AE881B9
:10375000F98182E08083789482E090E01CC00E942E
:103760000D1A80E28A95F1F75898509A40E14A95EF
:10377000F1F76A81662321F08B819C810E94A31A54
:103780000E94151AE881F9811082789480E090E017
:1037900002C084E090E0DF91CF911F910F910895D6
:1037A00090932802809327020895E0912702F091D8
:1037B0002802309721F00190F081E02D099480E0FB
:1037C0000895EF92FF920F931F93CF93DF93E091B1
:1037D0002702F09128023097B1F18C010280F38129
:1037E000E02D09958091AA0282FF2DC080FF04C0C0
:1037F00084E299E00E94AE05E80118E08EE1E82E2F
:1038000089E0F82E8091AA0280FF0BC088811F9268
:103810008F93FF92EF920E9447060F900F900F90A8
:103820000F90115021961111EDCF8091AA0280FFC7
:103830000AC08CE199E0DF91CF911F910F91FF9029
:10384000EF900C94AE05DF91CF911F910F91FF90F7
:10385000EF9008952091250230912602281739070C
:1038600071F09093260280932502E0912702F09157
:103870002802309721F00680F781E02D0994089501
:1038800020912302309124022817390771F0909378
:10389000240280932302E0912702F09128023097BE
:1038A00021F00084F185E02D0994089585B78068A2
:1038B00085BF85B7806885BF089508950C945D1C09
:1038C0000C945E1C0C945D1C0C945D1C0E94561C98
:1038D0000E94621C0C94601C0E9423290E94930980
:1038E0000E94AC290E94D2140E9459120C94641CAC
:1038F000CF93C82F8091AA0282FF1EC080FF04C010
:103900008DE399E00E94AE058091AA0280FF0CC071
:103910001F92CF9388E399E09F938F930E9447066D
:103920000F900F900F900F908091AA0280FF04C01B
:1039300086E399E00E94AE058C2FCF910C94B306DC
:10394000AF92BF92CF92DF92EF92FF920F931F93AD
:10395000CF93DF93CDB7DEB72A970FB6F894DEBFCB
:103960000FBECDBF0E94670A0E94530B811111C088
:103970008FEF89838A831B820E942C298160782F94
:103980009D838C8349815A816B818D810E943A1D70
:1039900040C08AE2A82E82E0B82E00E010E0C02EDF
:1039A000802F0E943909E82EF501D1905F01D826B9
:1039B00031F40F5F1F4F0A30110589F7D9CF80917D
:1039C000AA0281FD0E943F0980E0FF24F3949D2D0F
:1039D0009F21D1F08E83CF82EF2081E009F480E037
:1039E00088870E942C298160782F9A8789874E8149
:1039F0005F8168858A850E943A1DF801E65DFD4F6A
:103A00008081F826F08205C08F5FFF0C8630F9F6C2
:103A1000D0CF0E946E130E94AE160E94D51B9091CB
:103A200029028917B1F00E94D51B809329022A969A
:103A30000FB6F894DEBF0FBECDBFDF91CF911F91BF
:103A40000F91FF90EF90DF90CF90BF90AF900C94CC
:103A5000781C2A960FB6F894DEBF0FBECDBFDF915B
:103A6000CF911F910F91FF90EF90DF90CF90BF907B
:103A7000AF900895CF93DF93CDB7DEB72B970FB6F6
:103A8000F894DEBF0FBECDBF4F83588769877A8712
:103A90008B87DE01119686E0FD0111928A95E9F788
:103AA00085E0FE01379601900D928A95E1F74981F4
:103AB0005A816B817C818D819E810E94C4232B96CB
:103AC0000FB6F894DEBF0FBECDBFDF91CF91089542
:103AD000FC01808191810E949A260895CF938823CA
:103AE00009F49CC0C82F8238C1F40E94D51B81FD07
:103AF00095C069E380913301909134010E9493282D
:103B00000E9427272FEF81EE94E0215080409040C3
:103B1000E1F700C0000069E319C0833801F50E9495
:103B2000D51B80FD7BC063E580913301909134010A
:103B30000E9493280E9427272FEF81EE94E02150C6
:103B400080409040E1F700C0000063E580913301C0
:103B5000909134010E949528CF910C9427278438A6
:103B6000C1F40E94D51B82FD59C067E480913301E6
:103B7000909134010E9493280E9427272FEF81EE15
:103B800094E0215080409040E1F700C0000067E4DD
:103B9000DDCF8CEF8C0F813AD0F46C2F8091330104
:103BA000909134010E945D28882349F06C2F809108
:103BB0003301909134010E9495280E9427276C2F91
:103BC00080913301909134010E949328C5CF80E207
:103BD0008C0F883048F4C77081E001C0880FCA9507
:103BE000EAF70E94DC26B8CFEBE5EC0FE33040F4B7
:103BF000F0E0E652FE4F808190E0CF910C942A1CB9
:103C0000C85AC73158F4EC2FF0E0EE0FFF1FE4550F
:103C1000FE4F80819181CF910C94401CCF910895EB
:103C2000882309F45BC0682F823879F40E94D51B81
:103C300081FF54C069E380913301909134010E9467
:103C400093280E94272769E310C08338B1F40E94AB
:103C5000D51B80FF43C063E580913301909134010F
:103C60000E9493280E94272763E580913301909159
:103C700034010E9495280C942727843879F40E94F7
:103C8000D51B82FF2BC067E48091330190913401F2
:103C90000E9493280E94272767E4E7CF8CEF860FC6
:103CA000813A18F380E2860F883048F4677081E02B
:103CB00001C0880F6A95EAF70E94E226DCCF8BE507
:103CC000860F833020F480E090E00C942A1C685A20
:103CD000673120F480E090E00C94401C0895CF936D
:103CE000C82F0E946E1DC93349F42FEF87EE93E071
:103CF000215080409040E1F700C000008C2FCF9110
:103D00000C94101E882321F00E94DC260C94272797
:103D10000895882321F00E94E2260C942727089515
:103D2000CF92DF92EF92FF920F931F93CF93DF9387
:103D30007C01062FC72FFC01158112951F70D281BF
:103D4000D1110E94F9260E94D226882379F0DD2322
:103D500069F080E2800F883048F082E00E9471278D
:103D60000E94D22691E0D82ED92601C0D12CCC2E8B
:103D7000C2948FE0C8228C2D90E0FC01E659FF4FE1
:103D80000C94BA318C2F807FCF70882311F0C295AC
:103D9000C07FDD2399F0CC2309F482C180E2800F3B
:103DA000883010F0011104C08C2F0E94DC2603C063
:103DB0008C2F0E94EC260E94272772C1802F0E9420
:103DC000101ECC2309F491C180E2800F883010F0DE
:103DD000011104C08C2F0E94E22603C08C2F0E9488
:103DE000F2260E94272781C18C2F807FCF708032DE
:103DF00011F0C295C07F002319F00130C9F022C034
:103E0000DD2371F0112341F0113031F40E940C27B1
:103E10008C2B0E94142769C10E940C278C2B1DC07B
:103E2000112319F0113009F460C10E941D2725C02B
:103E3000DD2321F0163008F058C10EC0153008F00F
:103E400054C11BC0DD2361F0112331F0F7018581DE
:103E500080FF26C18F7085838C2F0E94821E45C1F2
:103E6000112359F0093309F02CC1FFEF27EE83E04D
:103E7000F15020408040E1F722C18C2F0E94891E22
:103E800034C18C2F86958695837019F0813061F04E
:103E90002CC1DD2321F0802F9C2F937002C080E085
:103EA00090E00E942A1C29C1DD2321F0802F9C2F45
:103EB000937002C080E090E00E94401C1EC18C2FD5
:103EC000837009F045C0D11114C1402F4295469529
:103ED0004770440F440F602F6F70862F90E0A0E072
:103EE000B0E0042E04C0880F991FAA1FBB1F0A94BC
:103EF000D2F704FF10C00FE010E020E030E004C073
:103F0000000F111F221F331F4A95D2F700951095FD
:103F10002095309503C000E010E09801C695C69545
:103F2000C370BC01CD01602B712B822B932BC2304F
:103F300049F058F4C13019F00E941525DAC00E94EA
:103F40000325D7C00E942725D4C00E940125D1C0D7
:103F5000DD2319F08C2F817001C08695882309F428
:103F6000C8C0402F429546954770440F440F602FBC
:103F70006F70862F90E0A0E0B0E0042E04C0880FA0
:103F8000991FAA1FBB1F0A94D2F704FF10C00FE0AD
:103F900010E020E030E004C0000F111F221F331F8B
:103FA0004A95D2F7009510952095309503C000E012
:103FB00010E09801C695C695C370BC01CD01602B79
:103FC000712B822B932BC23049F058F4C13019F079
:103FD0000E94DA258EC00E94C8258BC00E94EC2565
:103FE00088C00E943B2585C0CF70DD2339F08C2F1F
:103FF0000E946125802F0E94821E7BC0802F0E941C
:10400000891E8C2F0E94822574C0023F01F128F482
:10401000003F41F0013FA1F03FC0033FF9F0043FF2
:1040200039F13AC0DD2341F0153008F05EC08C2F25
:104030008F710E94A72559C0163008F056C0F7CFDF
:10404000DD2339F08C2F8F710E9461254EC0DD2356
:10405000C9F38C2F8F710E94822547C0DD2329F080
:104060008C2F8F710E944C2540C00E9447253DC077
:10407000DD2349F0CF718C2F0E94612563E08C2FE6
:104080000E945C2732C081E00E947127123068F1E3
:1040900082E00E94712729C0DD2331F0112391F2C3
:1040A000802F0E946E1D21C0112399F2093349F41B
:1040B0009FEFE7EEF3E09150E040F040E1F700C001
:1040C0000000802F0E94101E10C04C2F4F70602FD8
:1040D000C7010E9431070E9472240FC04C2F4F70FD
:1040E000602FC7010E94340708C088EF8C0D843010
:1040F00020F40E94D51B0E94B306DD20C9F00E9467
:10410000CE2680FD15C0F70112820E94C8260E94AB
:104110006125C7010E94B9200E94C826DF91CF9176
:104120001F910F91FF90EF90DF90CF900C9482251C
:10413000DF91CF911F910F91FF90EF90DF90CF9083
:1041400008950F931F93CF93DF93EC0168817981DA
:104150008A810E94A5268C010E94FE250E94EF24E0
:10416000B801CE010E94901EDF91CF911F910F9157
:104170000895CF93DF93FC01908181812381348165
:10418000232B31F08F3F31F481E09F3F19F403C0BE
:1041900081E001C080E080FD0EC0EF01CF010E94F0
:1041A000CC06882341F0CE010E94A120CE01DF91F0
:1041B000CF910C949206DF91CF9108950E94F92639
:1041C0000E9409270E94272780E090E00E942A1C75
:1041D00080E090E00C94401C809133019091340178
:1041E0000E9497280C94DE200E94E9260C94EC2073
:1041F000E92FE295EF704E2F50E0FA013297EE3042
:10420000F105B0F4E658FF4F0C94BA31803F91F0BD
:1042100018F4883E68F40EC0843F51F40BC0883E09
:1042200048F0813F29F406C093FB882780F9089560
:1042300080E0089581E008950E949A260E94F82067
:104240000895CF93DF9300D000D01F92CDB7DEB793
:104250000F900F900F900F900F90DF91CF910895D6
:10426000CF93DF9300D000D000D0CDB7DEB7269635
:104270000FB6F894DEBF0FBECDBFDF91CF9108958A
:104280001F93CF93DF93C091350216E080913602E1
:10429000C81799F0D0E01C9FF0011D9FF00D11246C
:1042A000E95CFD4F408151816281738184819581F8
:1042B0000E9430212196C770E9CFDF91CF911F91E5
:1042C000089540916702509168026091690270916F
:1042D0006A0280916B0290916C020C943021CF9312
:1042E00080916C0282958F7009F05FC080916902A5
:1042F000882309F45AC080913502B091360270913A
:104300006702A091680240916A0250916B0291E0AD
:104310007F3F09F090E0692FC6E08B1709F445C094
:104320004115510521F0AF3F21F020E003C021E00D
:1043300001C0262F90E020FD35C0C89FF001C99F25
:10434000F00D1124E95CFD4F21812A132BC020813F
:10435000271328C02281211125C0238134812417ED
:10436000350710F421503109241B350B283C310549
:10437000C8F420916C022F70206120936C0226E01B
:10438000289FF001299FF00D1124E45CFD4F8081EE
:104390008F708061808387E692E00E94B920CF9180
:1043A0000C94402101968770B8CFCF910895AF92B9
:1043B000BF92CF92DF92EF92FF920F931F93CF9312
:1043C000DF93CDB7DEB761970FB6F894DEBF0FBEAF
:1043D000CDBF8C0185E0F801DE011D9601900D92A4
:1043E0008A95E1F7D8014C9111965C91119712963C
:1043F000EC90309167026091680280916A0290911E
:104400006B02009731F06F3F31F421E03F3F19F428
:1044100003C021E001C020E0B22FB170BB2E20FD0F
:1044200060C1F801C380D480A0906902AA2009F479
:10443000EEC020916C02C816D90628F0D601A81B40
:10444000B90BCD0104C0809590958C0D9D1DFF2466
:10445000F394883C910580F0F12C207F09F09CC0FA
:104460007C2DD98AC88A6E2D89890E94212187E6F0
:1044700092E00E94B9202DC1822F807F09F054C0A4
:10448000561314C0431312C0FE2CE1100FC02F703E
:10449000206120936C020E94612187E692E00E94D5
:1044A000B92080916C02F80185835CC1CD2831F080
:1044B0005F3F31F481E04F3F19F403C081E001C058
:1044C00080E080FD03C081E08E2502C080E090E0A6
:1044D000F82FF170FF2E80FF1CC0809135022091D3
:1044E000360236E0821709F41AC190E0389FF001D5
:1044F000399FF00D1124E95CFD4F6181561306C010
:104500006081461303C06281E61203C00196877082
:10451000E9CFFE2CEE2009F425C180916C02816068
:1045200080936C02F12C1EC1561309C0431307C0BF
:10453000E11005C080916C02F8018583A4C04D870D
:104540005E878D859E850E941C21882379F1EE204F
:1045500069F120916C02822F82958F7090E0029712
:1045600074F0809167029091680298878F83198612
:10457000DB86CA862C87CE0107960E94B92086E08A
:10458000F801A7E6B2E001900D928A95E1F70E944A
:104590006F210E9461210DC0561771F04D875E8713
:1045A0008D859E850E941C2181111AC0C8010E9420
:1045B000B920FF24F394D6C04313F0CFE110EECF1F
:1045C00080916C02F8018583C8010E94B92086E0C1
:1045D000E7E6F2E0DF011D928A95E9F7FA2CC2C006
:1045E000EE2021F320916C02822F82958F7090E053
:1045F00002972CF280916702909168029A838983D6
:104600001B82DD82CC822E83CE010196B6CFC816E6
:10461000D90628F0F601E81BF90BCF0104C08095FC
:1046200090958C0D9D1D883C910548F0F12C7C2DBA
:10463000D98AC88A6E2D89890E9421214AC0FE2C00
:10464000EE2009F4B3CF561333C0431331C0209189
:104650006C0220FD24C0822F82958F70482F50E07D
:1046600041155105E1F0D80115962C9315974F305F
:10467000510549F08F5F982F9295907F822F8F7010
:10468000892B15968C93C8010E94B92086E0F80109
:10469000A7E6B2E001900D928A95E1F73DC086E071
:1046A000F801A7E6B2E001900D928A95E1F75AC0B1
:1046B0004D875E878D859E850E941C2181115FCF6D
:1046C00080916C02816080936C02C8010E94B920C5
:1046D00049C0E7E6F2E086E0DF011D928A95E9F73E
:1046E0001BC0EE2009F462CF4D875E878D859E85C5
:1046F0000E941C21F82E882309F458CF86E0F80187
:10470000A7E6B2E001900D928A95E1F787E692E084
:104710000E94681D0E946F210E94612123C04D8765
:104720005E878D859E850E949A26292F22952F705F
:10473000223028F49F7039F0811105C00BC024305D
:1047400028F49F7049F4805E883020F0C8010E94F0
:10475000B920BF2CFB2C06C0D80115969C91907FE8
:1047600091F7F8CF8F2D61960FB6F894DEBF0FBE8C
:10477000CDBFDF91CF911F910F91FF90EF90DF9010
:10478000CF90BF90AF9008951F93CF93DF93CDB795
:10479000DEB72C970FB6F894DEBF0FBECDBF4F83A8
:1047A000588769877A878B879C87CE0107960E94F6
:1047B000D7218823D1F09F8188852A853B85232BAB
:1047C00031F08F3F31F481E09F3F19F403C081E065
:1047D00001C080E080FD47C04F81588569857A859A
:1047E0008B859C850E9430213EC086E0FE01379675
:1047F000DE01119601900D928A95E1F7FF81E8851F
:104800006A857B856115710531F0EF3F31F481E0F8
:10481000FF3F19F403C081E001C080E080FD23C0A8
:104820002091360230E0C9010196877099274091A6
:10483000350250E084179507F1F1F983EA837D830F
:104840006C8396E0929FD001939FB00D1124A95CD8
:10485000BD4FFE01319601900D929A95E1F780933C
:1048600036020E94402116E0809135029091360276
:10487000891771F1189FC0011124895C9D4F0E9416
:10488000D721882329F1E09135021E9FF0011124E0
:10489000E95CFD4F40815181628173818481958102
:1048A0000E9430218091350290E00196877099270F
:1048B00080933502D9CF0E94F420109236021092D4
:1048C0003502E7E6F2E086E0DF011D928A95E9F71E
:1048D0002C960FB6F894DEBF0FBECDBFDF91CF91FF
:1048E0001F910895EF92FF920F931F93CF93DF9341
:1048F0008C01892B09F46CC0F12CEE24E394E801BF
:104900002196F8018491843740F4843008F051C036
:10491000813081F0823019F15BC0853709F444C0E1
:10492000A8F19CE7980F903708F052C08F770E944B
:10493000101E41C00E5F1F4FFE01849190E2980F40
:10494000983050F48770FE2D01C0FF0F8A95EAF76A
:104950008F2F0E94FC2614C00E946E1D2DC00E5F7A
:104960001F4FFE01849190E2980F983060F4877099
:10497000FE2D01C0FF0F8A95EAF78F2F0E940227B4
:104980000E94272719C00E94101E16C00E5F1F4FDD
:10499000FE01C491CC2381F08FE99FE00197F1F7EC
:1049A00000C00000C150F6CF0E5F1F4FFE01F49013
:1049B00003C00E946E1D8E018F2D882309F49FCFA6
:1049C000EFE9FFE03197F1F700C000008150F5CF2B
:1049D000DF91CF911F910F91FF90EF90089508956F
:1049E00008950C94F0240C94F1240E94F324609315
:1049F000990270939A0280939B0290939C020C946C
:104A0000DE200C94F5240F931F93009199021091CE
:104A10009A0220919B0230919C02602B712B822B79
:104A2000932B1F910F910C94F5240F931F930091DA
:104A3000990210919A0220919B0230919C0260236E
:104A40007123822393231F910F910C94F5240F93CC
:104A50001F930091990210919A0220919B0230912C
:104A60009C0260277127822793271F910F910C9436
:104A7000F5240C94F0240E943925609395027093DC
:104A8000960280939702909398020C94DE2060E047
:104A900070E0CB010C943B250F931F9341E050E055
:104AA00060E070E08A019B0104C0000F111F221F0B
:104AB000331F8A95D2F7C901B8011F910F910C9449
:104AC0003B250F931F9341E050E060E070E004C08D
:104AD000440F551F661F771F8A95D2F78091950264
:104AE00090919602A0919702B09198028A019B0141
:104AF000082B192B2A2B3B2BC901B8011F910F91B1
:104B00000C943B250F931F9341E050E060E070E070
:104B100004C0440F551F661F771F8A95D2F7409532
:104B20005095609570958091950290919602A09114
:104B30009702B09198028A019B01082319232A2326
:104B40003B23C901B8011F910F910C943B250F9392
:104B50001F9341E050E060E070E004C0440F551F37
:104B6000661F771F8A95D2F78091950290919602E1
:104B7000A0919702B09198028A019B0108271927FA
:104B80002A273B27C901B8011F910F910C943B259F
:104B90000F931F9300919502109196022091970216
:104BA00030919802602B712B822B932B1F910F91C8
:104BB0000C943B250F931F93009195021091960240
:104BC00020919702309198026023712382239323CE
:104BD0001F910F910C943B250F931F930091950209
:104BE00010919602209197023091980260277127C8
:104BF000822793271F910F910C943B250895292F0D
:104C0000220F920F990F890FE82FE695E695E6950A
:104C1000877051E001C0550F8A95EAF785E0E89F5B
:104C2000F0011124E359FD4F20E030E070E04081B5
:104C3000CB01022E02C0969587950A94E2F7817007
:104C4000819584278523842781932F5F3F4F2530CB
:104C5000310569F70895292F220F920F990F890FB7
:104C6000682F669566956695982F977085E0689F82
:104C7000B001112440E050E080E0FB01E40FF51F9B
:104C8000E359FD4F208130E0092E02C0369527956B
:104C90000A94E2F721703327042E01C0220F0A94F0
:104CA000EAF7822B4F5F5F4F4530510531F708958A
:104CB000BF92CF92DF92EF92FF920F931F93CF9309
:104CC000DF938C01C0909502D0909602E0909702FD
:104CD000F09098028091990290919A02A0919B0283
:104CE000B0919C02C82AD92AEA2AFB2ACFE1D0E057
:104CF000D701C6010C2E04C0B695A7959795879548
:104D00000A94D2F780FD04C0219790F7B12C07C018
:104D1000BC2EB8018C2F0E9450070197A9F38B2D50
:104D2000DF91CF911F910F91FF90EF90DF90CF9087
:104D3000BF900895CF93DF93EC010E945826BE01E7
:104D40000E945007DF91CF9108951F93CF93DF9377
:104D5000EB0190913402992321F0CB010E949A2615
:104D600013C0882349F0CB010E945826182F682FC2
:104D7000CE010E94FF2504C0CB010E942B26182FD4
:104D8000BE01812F0E945007DF91CF911F9108959E
:104D900080919D02859585958595089580919D02C8
:104DA0008770089590919D02977081E009F480E0EA
:104DB00008958091A90208959091A902892B80936A
:104DC000A902089580959091A90289238093A90250
:104DD00008951092A90208959091A802892B8093BA
:104DE000A802089580959091A80289238093A80233
:104DF00008951092A80208959091A702892B80939C
:104E0000A702089580959091A70289238093A70215
:104E100008951092A702089580919E020895089522
:104E20000C940F270C94102790919E02981721F054
:104E300080939E020C941227089580919E028823ED
:104E400029F010929E0280E00C9412270895E091C0
:104E50003301F09134018091A9028083E091330104
:104E6000F091340190818091A802892B8083E09198
:104E70003301F091340190818091A702892B8083C6
:104E800080919E02882381F0E0913301F0913401FA
:104E90009081892B808380913301909134010E940D
:104EA000512881110E941D27809133019091340176
:104EB0000C94E11B0C940F2798E0899F900111241A
:104EC000262B20939D020E94612580919D0285954D
:104ED000859585950C945A2710929D0280E00C943C
:104EE0005A2720919D028095822380939D02982FBE
:104EF000977079F430E0482F082E000C550B2417DA
:104F0000350739F08595859585950E9482250C9405
:104F10006C2708959093ED018093EC01089582959C
:104F2000982F937344E0949F900111248C7C869574
:104F30008695282B822F8575880F2A7A2695822BB5
:104F4000089580E090E00E94F53121E08C3E9E4F74
:104F500009F020E0822F089582E090E00C94E73180
:104F600083E090E00C94E731CF9384E090E00E94DE
:104F7000E731C82F81E290E00E94E7312C2F30E02A
:104F8000A901582BCA01CF910895CF93C92F682F3B
:104F900084E090E00E94FB316C2F81E290E0CF91A1
:104FA0000C94FB3186E090E00C94E731682F86E0AA
:104FB00090E00C94FB31AB01BC018FE090E00C94CD
:104FC0000D32AB01BC0183E190E00C940D3260E046
:104FD00070E0CB010C94E12760E070E0CB010E940F
:104FE000DB270C94E7276CEE7EEF80E090E00E94D8
:104FF000193260E082E090E00E94FB3160E083E0E3
:1050000090E00E94FB311092990210929A02109245
:105010009B0210929C0260E084E090E00E94FB31D1
:1050200060E081E290E00E94FB3160E085E090E08A
:105030000E94FB3160E086E090E00E94FB316FEF60
:1050400087E090E00E94FB3140E050E0BA0188E048
:1050500090E00E940D3260E08DE090E00E94FB3114
:1050600040E050E0BA0188E190E00E940D3260E03B
:1050700087E190E00E94FB3140E050E0BA018CE112
:1050800090E00E940D3260E080E290E00E94FB31EF
:105090000C94EC270C94F327682F8EE090E00C948E
:1050A000FB31FC01329697E080E0915029F021918C
:1050B0002223D9F38F5FF9CF0895662349F0FC01CD
:1050C000329608962191621729F0E817F907D1F76F
:1050D00080E0089581E008959C01FC0132969FEFE5
:1050E00080E04191461789F09F3F19F4411101C0BA
:1050F000982F8F5F8630A9F79F3F39F0F901E90FAC
:10510000F11D97FDFA956283089508959C012A5F29
:105110003F4FFC014281461301C012820196821763
:105120009307B9F708950C946C280C94862802967E
:1051300026E0FC0111922A95E9F7089508950C9450
:105140009E280C949E28CF930E94A1280E94670A53
:105150000E949F28C0E08C2F0E943909811104C051
:10516000CF5FCA30C1F701C081E0CF9108950C94A0
:105170009E280C94B7280E94B9288091040384309B
:1051800061F11092AB0220E488E190E00FB6F89450
:10519000A895809360000FBE2093600080E00E947D
:1051A0004D1680E00E94B3060E94B92883B7817F24
:1051B000846083BF83B7816083BF7894889583B709
:1051C0008E7F83BF0FB6F894A895809160008861A8
:1051D00080936000109260000FBE08950C949E288A
:1051E0000E94F4200E94D2140E94D51B0E94B30694
:1051F0000C94EE281F920F920FB60F9211248F93EA
:105200009F93AF93BF938091AB02811113C08091A4
:10521000FA029091FB02A091FC02B091FD0241962E
:10522000A11DB11D8093FA029093FB02A093FC0292
:10523000B093FD02BF91AF919F918F910F900FBEE0
:105240000F901F90189582E084BD93E095BD9AEF72
:1052500097BD80936E0008952FB7F8948091FA025D
:105260009091FB02A091FC02B091FD022FBF089526
:10527000CF92DF92EF92FF920F931F932FB7F89484
:105280004091FA025091FB026091FC027091FD0284
:105290002FBF6A017B01EE24FF248C0120E030E067
:1052A000C016D106E206F30610F4415051099A01E6
:1052B000281B390BC9011F910F91FF90EF90DF90D0
:1052C000CF90089578941F920F920FB60F921124E9
:1052D0008F939F93AF93BF938091FA029091FB02BB
:1052E000A091FC02B091FD020196A11DB11D809319
:1052F000FA029093FB02A093FC02B093FD02BF91CF
:10530000AF919F918F910F900FBE0F901F901895A6
:1053100081E08093E00080E28093D8001092C90081
:105320008FE19EE40197F1F700C0000087E090EB69
:10533000DC0180930D0390930E03A0930F03B093B1
:1053400010039CE088E10FB6F894A8958093600064
:105350000FBE90936000FFCF0E94A127811102C071
:105360000E944A280E94AC278093AA020E94B42778
:105370009093FF028093FE020E94B027682F70E096
:1053800080E090E00C9401258091B7020895089583
:105390009FB7F8941092AE029FBF9091040394308F
:1053A00009F057C09091E9009F703091EC00232FD5
:1053B000217030FD20E8922B23E02093E90020911A
:1053C000EB0020FF43C02091EE0027FF3FC020915B
:1053D000AC02222321F02091E80025FF37C0109273
:1053E000AC0226E03091E80035FD15C03091040391
:1053F000343061F53091EB0035FD28C0215021F4A7
:1054000081E08093AC0222C0EFE9FFE03197F1F731
:1054100000C00000E7CF8093F1008091E80085FD97
:105420000AC08091E80080FFFCCF8091E8008E7771
:105430008093E80006C08FB7F89421E02093AE0275
:105440008FBF9F709093E90080E008959F709093C4
:10545000E9008FEF0895CF93DF9300D01F92CDB76F
:10546000DEB790910403943019F589837B836A83B6
:1054700082E08093E9008FEF9091E800815095FDE4
:1054800006C095ED9A95F1F700008111F5CF809156
:10549000E80085FF0DC040E050E063E070E0CE0121
:1054A00001960E94A92C8091E8008E778093E800F5
:1054B0000F900F900F90DF91CF910895CF93DF93CE
:1054C000EC010E948C2C823011F0843031F4BE014A
:1054D00084E0DF91CF910C942B2ADF91CF91089536
:1054E000BC0183E00C942B2ACF93DF93EC010E9444
:1054F0008C2C823011F0843039F581E08093E90002
:105500008FEF9091E800815095FD06C095ED9A953A
:10551000F1F700008111F5CF8091E80085FF14C0FC
:1055200040E050E068E070E0CE010E94A92C80913C
:10553000E8008E778093E80088E0FE01AFEAB2E0F1
:1055400001900D928A95E1F7DF91CF91089585E75B
:1055500099E00E94AE0580910303811109C00E9469
:105560003A2E0E94972E8091E20084608093E200A0
:10557000089581E799E00E94AE0510920303089513
:105580008DE699E00C94AE0589E699E00C94AE05A1
:1055900085E699E00E94AE050C94F0282091AD02BA
:1055A0002F5F822F62E30E945631992319F02093D6
:1055B000AD0208951092AD028091AE02882371F180
:1055C00080910403843041F58091E9008F7020912F
:1055D000EC00922F917020FD90E8892B93E090933E
:1055E000E9009091EB0090FF14C09091EE0097FFBE
:1055F00010C09091E80095FF03C01092F100F9CF20
:105600009091E80090FF05C09091E8009E779093FC
:10561000E8008F708093E9001092AE02089542E096
:1056200061EC81E00E94B32D42E261EC82E00E94D5
:10563000B32D42E261EC83E00C94B32D809106031C
:10564000833009F460C030F4813071F0823009F4A5
:1056500099C008958A3009F485C08B3009F46BC075
:10566000893009F0A7C020C080910503813A09F074
:10567000A1C08091E800877F8093E80080910903B2
:1056800090910A03892B21F468E08FEA92E003C02D
:1056900060E080E090E070E00E94F42C8091E800EF
:1056A0008B778093E800089580910503813209F09B
:1056B00081C08091090390910A03029708F07AC093
:1056C0008091E800877F8093E8008091E80082FD68
:1056D00005C0809104038111F8CF6CC02091F300C4
:1056E0008091F20090E0922B029729F48091F100D2
:1056F0008B7F813021F48091F1008093B7028091FB
:10570000E8008B7753C080910503813A09F052C0BD
:105710008091090390910A03892B09F04BC0809175
:10572000E800877F8093E8008091E80080FFFCCF4D
:1057300080913F0136C0809105038132D9F5809177
:10574000090390910A03892BA9F58091E800877FCE
:105750008093E8000E94E82D8091070380933F0129
:105760000C94F42080910503813221F58091E800AA
:10577000877F8093E8000E94E82D80910803809342
:10578000B802089580910503813AA1F48091E80060
:10579000877F8093E8008091E80080FFFCCF8091B4
:1057A000B8028093F1008091E8008E778093E80042
:1057B0000C94E82D089584B7877F84BF0FB6F894C2
:1057C000A8958091600088618093600010926000CD
:1057D0000FBE90E080E80FB6F8948093610090933C
:1057E00061000FBE0E94661C0E943A2E0E94972EF6
:1057F0008091E20084608093E20088EC99E20E944C
:105800008A2778940E942B310E946C1C85E391E0DA
:105810000E94D01B84E599E00E94AE0580910403AC
:10582000853089F480E599E00E94AE050E94BB288E
:1058300080910203882391F30E94A328882371F3A7
:105840000E94932CEBCF0E94A01CE8CF0C94282C34
:10585000292F332723303105C9F060F42130310579
:1058600081F02230310509F047C08BE590E021EB53
:1058700039E046C02132310511F12232310561F1A2
:105880003BC082E190E02CE03AE03AC099278130B9
:10589000910561F040F08230910559F0039761F570
:1058A000E9E7F9E008C0EDEAF9E005C0EDE9F9E063
:1058B00002C0EFE7F9E0849190E09F0121C06330DE
:1058C0007105D0F4660F771FFB01EA51FE4F20816E
:1058D000318189E090E014C06330710568F4FB0108
:1058E000EE0FFF1FE052FE4F20813181FB01E3529A
:1058F000FE4F808190E004C080E090E020E030E046
:10590000FA0131832083089580910403843011F0DB
:1059100081E0089582E008958091B902811102C06A
:105920000C94842C089580E189BD82E189BD09B47D
:1059300000FEFDCF8091D8008F7D8093D8008091AC
:10594000E00082608093E0008091E00081FDFCCF68
:105950000895CF92DF92EF92FF920F931F93CF9310
:10596000DF93EC018B017A010E94072E811133C075
:10597000E114F10439F0F70180819181081B190BC2
:10598000C80FD91FC12CD12C0115110519F1809117
:10599000E80085FD16C08091E8008E778093E800CE
:1059A000E114F10449F0F70180819181C80ED91EFC
:1059B000D182C08285E00FC00E94072E882321F388
:1059C0000AC089918093F10001501109FFEFCF1AAD
:1059D000DF0ADACF80E0DF91CF911F910F91FF9026
:1059E000EF90DF90CF90089520910B0330910C033E
:1059F0002617370748F06115710539F42091E80042
:105A00002E772093E80001C0B901FC0120E0611568
:105A1000710579F1809104038823F1F18530F1F16A
:105A20008091E80083FD3CC08091E80082FD2EC09B
:105A30008091E80080FFEBCF2091F3008091F2008D
:105A400090E0922B6115710551F08830910538F482
:105A500021912093F100615071090196F3CF21E06B
:105A6000089709F020E08091E8008E778093E800A5
:105A7000CECF2111CFCF0AC080910403882361F0DB
:105A8000853061F08091E80083FD0AC08091E800D4
:105A900082FFF2CF80E0089582E0089583E00895C8
:105AA00081E0089520910B0330910C0326173707EE
:105AB00048F06115710539F42091E8002E772093A4
:105AC000E80001C0B901FC0120E06115710591F108
:105AD00080910403882309F440C0853009F43FC055
